:100000000C94CD1D0C94FE1D0C94FE1D0C94FE1D35
:100010000C94FE1D0C94FE1D0C94FE1D0C94FE1DF4
:100020000C94FE1D0C94FE1D0C94FE1D0C94FE1DE4
:100030000C94FE1D0C94658E0C94FE1D0C94FE1DFC
:100040000C94FE1D0C9482650C94FE1D0C94FE1DF8
:100050000C94FE1D0C94FE1D0C9454830C941BFBFD
:100060000C94FE1D0C9435CE0C942BCE0C94FE1DDE
:100070000C94FE1D0C94FE1D0C94FE1D0C94FE1D94
:100080000C94FE1D0C94FE1D0C94FE1D0C94FE1D84
:100090000C94FE1D0C94FE1D0C94FE1D0C94FE1D74
:1000A0000C94FE1D0C94FE1D0C94FE1D0C94FE1D64
:1000B0000C94FE1D0C94FE1D0C94FE1D0C94FE1D54
:1000C0000C94FE1D0C94FE1D0C94FE1D0C94FE1D44
:1000D0000C94FE1D0C94FE1D0C94FE1D0C94FE1D34
:1000E0000C94FE1D84EB5DEB60EB87EB63EB66EB42
:1000F00069EB75EB6CEB82EB6FEB72EB66F969F910
:1001000058F95CF962F9A0F96DF971F977F97BF9A1
:100110007FF985F989F98DF9A0F993F997F99BF998
:1001200035FA3AFA3FFA49FA53FACCFA5DFA65FA27
:100130006DFA77FA81FA8BFA9AFAA4FACCFAAEFA47
:10014000B8FAC2FA05A84CCDB2D44EB93836A902D5
:100150000C50B9918688083CA6AAAA2ABE000000C5
:10016000803F0C9481FA0C943CA30C94CBC10C946A
:100170005EDD0C947FF90C9466EB0C9472A30C94E6
:10018000227C0D941B070C94D0C10C9485F90C941F
:1001900074A90C943FFA0C9472BE0C9435FA0C942A
:1001A000A0A30C9458F90C9461A40C94DA330C9429
:1001B0001FA50C94E8370C9468A90C943DA40C94EA
:1001C000DA4E0C946FEB0C94CFE90C9468A40C9469
:1001D00028B50C9482EB0C94088E0C94B8FA0C940D
:1001E000D1370C94B7E90C94917A0C94E2330C94C7
:1001F0008DF90C94ABA30C94B6BD0C944AA90C9445
:1002000019D80C9477FA0C94C7E90C944C370C94D9
:100210007FA30C94D5C10C9449FA0C949BF90C94CF
:1002200088540C94BFE90C94ACBD0C9413A80C94A6
:10023000AFE90C9464A30C943AFA0C948CA90C9436
:1002400079790C94D7E90C942D370C949DA30C94D8
:1002500071F90C94CCFA0C94D6A20C94E0500C9446
:10026000F1350C947AA90C9414A30C9456A90C940F
:10027000B1BD0C9480A90C94AEFA0C94DE7C0C9465
:1002800089F90C948BFA0C94C0A20D948C030C94F5
:10029000B9C10C945CA90C94C34E0C9465FA0C94EF
:1002A00089790C946DFA0C94FFC10C946CEB0C944E
:1002B00077F90C94A7E90C9472EB0C9444C00C945D
:1002C0009A760C9484EB0C941CDE0C94DAA70C94B4
:1002D0008AEB0C943FF60C9445C40C9415A50C9431
:1002E0005AA40C94C2FA0C9419DE0C94BD760C94AA
:1002F00097F90C9439F60C94DFE90C94E0DF0C9438
:100300005E360C9486A90C9475EB0C944CA50C9459
:1003100075BE0C94DAC10C94C8A30C9450A30C9431
:100320009FE90C9462F90C9463EB0C9469EB0C94C8
:1003300066F90C9402A40C945DFA0C949D8D0C94B7
:1003400000A30C94E5A30C9447C40C94ECA20C9469
:10035000C78D0C9460EB0C94C1C10C945DEB0C94B4
:100360007FC20C941FDE0C94C6C10C94148F0C94A5
:1003700093F90C9475B40C9405C20C94E7E90C94B1
:10038000D48D0C941DC00C945CF90C9401360C9423
:100390009AA30C947BF90C9411C20C94F14E0C941A
:1003A00050A90C9480E90C94ECDF0C9487EB0C942E
:1003B00028A30C946EA90C948E330C94A4FA0C947C
:1003C000F9C10C94EC8D0C9416360C94DFC10C948E
:1003D000D88D0C9453FA0C94A0F90C941AF60C9442
:1003E000D58D0C9469F90C9415370C946DF90C9417
:1003F00062A90C941FA40C9481C20C944FBF0C945E
:100400000BC20C94BB330C949AFA0C9478F70C94AE
:100410008CA34E414E494E495459494E46CDCCCC01
:100420003D0AD7233C17B7D13877CC2B329595E6C8
:10043000241FB14F0A000020410000C84200401CA8
:100440004620BCBE4CCA1B0E5AAEC59D7400407AF5
:1004500010F35A00A0724E18090010A5D4E800004D
:10046000E87648170000E40B54020000CA9A3B00EB
:100470000000E1F505000080969800000040420F62
:10048000000000A08601000000102700000000E826
:1004900003000000006400000000000A00000000EB
:1004A000000100000000002C76D888DC674F08238C
:1004B000DFC1DFAE59E1B1B796E5E3E453C63AE6F2
:1004C00051997696E8E6C28426EB898C9B62ED40D2
:1004D0007C6FFCEFBC9C9F40F2BAA56FA5F4900521
:1004E0005A2AF75C936B6CF9676DC11BFCE0E40D55
:1004F00047FEF520E6B500D0ED902E030094357749
:10050000050080841E080000204E0A000000C80C70
:10051000333333330F986E12831141EF8D211489D9
:100520003BE65516CFFEE6DB18D1844B381BF77C33
:100530001D901DA4BBE424203284725E228100C978
:10054000F124ECA1E53D27434F4D4D554E49434124
:1005500054494F4E0044525952554E004552524F45
:10056000525300494E464F004543484F00536C6577
:1005700065702E2E2E004D65736820706F696E7445
:100580002063616E6E6F74206265207265736F6C9C
:100590007665640A00436C69636B20746F20526552
:1005A00073756D652E2E2E004E6F204D6F76652E65
:1005B00000456E642066696C65206C6973740A007E
:1005C000426567696E2066696C65206C6973740AA0
:1005D00000286E6F2066696C65290043757272652C
:1005E0006E742066696C653A20005344207072690D
:1005F0006E74696E67206279746520004E6F742096
:100600005344207072696E74696E670A002E0A0086
:1006100044656C6574696F6E206661696C65642CF5
:100620002046696C653A200046696C652064656CFB
:10063000657465643A005072696E742074696D6502
:100640003A20000A53746174733A2046696C616DF4
:10065000656E7420757365643A20002C204C6F6EB3
:1006600067657374206A6F623A2000546F74616C1E
:100670002074696D653A200053746174733A2000E8
:100680002C204661696C65643A20002C2046696E16
:1006900069736865643A20005072696E74733A2019
:1006A0000053746174733A20004520436F6F6C6986
:1006B0006E672E2E2E00452048656174696E672E88
:1006C0002E2E006F666600680563055C05550547BC
:1006D0000544454255473A004D31313320530042DD
:1006E000656420436F6F6C696E672E2E2E00426525
:1006F000642048656174696E672E2E2E006F6B0052
:100700004A474175726F7261204135204F46462E2F
:1007100000204500205A00205900204D3932205831
:10072000004348414D4245525F54454D504552416A
:1007300054555245004D4F54494F4E5F4D4F44451F
:100740005300544845524D414C5F50524F5445431D
:1007500054494F4E004155544F5245504F52545FEB
:1007600053445F5354415455530050524F4D5054CD
:100770005F535550504F525400454D455247454EDA
:1007800043595F50415253455200434153455F4CDA
:10079000494748545F4252494748544E45535300D5
:1007A000544F47474C455F4C494748545300534FBB
:1007B0004654574152455F504F57455200425549A4
:1007C0004C445F50455243454E54004C4556454CB1
:1007D000494E475F44415441005A5F50524F424591
:1007E000004155544F4C4556454C005052494E54CB
:1007F0005F4A4F420050524F4752455353004155B4
:10080000544F5245504F52545F54454D5000564F2F
:100810004C554D455452494300454550524F4D00AB
:1008200042494E4152595F46494C455F5452414EF0
:10083000534645520053455249414C5F584F4E5F15
:10084000584F4646004649524D574152455F4E412A
:100850004D453A4D61726C696E20627567666978C4
:100860002D322E302E782028476974687562292031
:10087000534F555243455F434F44455F55524C3AA1
:1008800068747470733A2F2F6769746875622E6389
:100890006F6D2F4D61726C696E4669726D77617212
:1008A000652F4D61726C696E2050524F544F434F0B
:1008B0004C5F56455253494F4E3A312E30204D41F0
:1008C0004348494E455F545950453A4A474175722D
:1008D0006F72612041352045585452554445525F4E
:1008E000434F554E543A3120555549443A63656457
:1008F00065326132662D343161322D343734382D12
:10090000396231322D6335356336326633363766B8
:10091000660A002F2F20004D31343520533C696E7C
:100920006465783E206F7574206F662072616E6713
:10093000652028302D31290A002054002052004122
:100940006363656C65726174696F6E3A205000571D
:1009500041524E494E4721204C6F77205A204A651C
:10096000726B206D6179206C65616420746F2075F5
:100970006E77616E746564207061757365732E0A9D
:10098000004F4646004F4E00205A002059005800A4
:1009900020204D61783A2000205A0020590058004C
:1009A00020204D696E3A2000536F667420656E6496
:1009B00073746F70733A200020466C6F773A200092
:1009C00050726F7465637465642050696E0A0049E3
:1009D0006E76616C69642065787472756465720AFC
:1009E0000020643A0020693A0020703A006469737C
:1009F00000656E0043290A0061626C656420286D01
:100A0000696E2074656D702000436F6C642065789A
:100A100074727564657320617265200046696C614B
:100A20006D656E742072756E6F757420004F46464A
:100A30000A00466164652048656967687420004261
:100A40006564204C6576656C696E67200046616957
:100A50006C656420746F20656E61626C6520426510
:100A600064204C6576656C696E670A004D65736835
:100A700020426564204C6576656C20646174613A3F
:100A80000A00496E76616C6964206D6573682E0A90
:100A9000004D65736820706F696E742063616E6EBF
:100AA0006F74206265207265736F6C7665640A00EE
:100AB0004D34323120696E636F72726563742070D9
:100AC0006172616D657465722075736167650A0096
:100AD0004F666673657473204170706C696564005D
:100AE0004572723A20546F6F206661722100546F14
:100AF0006F206661722066726F6D20726566657226
:100B0000656E636520706F696E740A0045455052CA
:100B10004F4D204F4B0A004D34323800496E6974F6
:100B200069616C697A6520454550524F4D004669B0
:100B30006C616D656E740054656D7065726174757D
:100B400072650053746570732F6D6D004A65726B2A
:100B500000416363656C65726174696F6E00566510
:100B60006C6F636974790053657420486F6D6520FC
:100B70004F66667365747300436F6E66696775725E
:100B80006174696F6E003F004E65787420436F7228
:100B90006E657200446F6E65004E65787400473272
:100BA00038004C6576656C696E6720446F6E652110
:100BB000004D6F7665205A00473239205332004E7F
:100BC00065787420506F696E74002569202F202588
:100BD00075004732392053310047323920533200F3
:100BE000436C69636B20746F20426567696E0047D0
:100BF00032380053746F72652053657474696E6780
:100C000073004C6F61642053657474696E67730080
:100C10004C6576656C20436F726E65727300426539
:100C200064205A00426564205A0046616465204889
:100C3000656967687400466164652048656967682E
:100C400074004F6666004F6E00426564204C657606
:100C5000656C696E67004C6576656C204265640062
:100C60004D6F74696F6E0053746F726520536574B5
:100C700074696E67730042656400426564004E6F7C
:100C80007A7A6C65004E6F7A7A6C650046616E20E8
:100C900053706565640046616E205370656564003D
:100CA000436F6E66696775726174696F6E007C3C34
:100CB0003E5E2B3D3F2F5B5D3B2C2A225C0000807B
:100CC0009843008098430000A0430000A0C00000AB
:100CD000000000000000290A002062797465733B5F
:100CE00020637263200053657474696E67732053C8
:100CF000746F726564202800454550524F4D206442
:100D000061746173697A65206572726F722E0A0070
:100D1000290A002062797465733B206372632000A6
:100D20002073746F7265642073657474696E677381
:100D300020726574726965766564202800202863D6
:100D4000616C63756C6174656429210A0020213D22
:100D50002000454550524F4D20435243206D69734A
:100D60006D61746368202D202873746F7265642927
:100D700020002053697A653A2000496E6465783A0C
:100D80002000204D61726C696E3D563638290A008C
:100D9000454550524F4D2076657273696F6E206DD8
:100DA00069736D617463682028454550524F4D3D0D
:100DB00000486F6D696E672058595A004C6F616426
:100DC000206D6D004C6F6164206D6D00556E6C6F11
:100DD0006164206D6D00556E6C6F6164206D6D00F7
:100DE00046696C2E204469612E0046696C2E2044B1
:100DF00069612E004F6666004F6E004520696E20C7
:100E00006D6D5E3300416476616E63656420536589
:100E10007474696E6773004D33303320553120454B
:100E200025692053256900504944204175746F7429
:100E3000756E6500504944204175746F74756E6518
:100E4000005049442D44005049442D440050494429
:100E50002D49005049442D49005049442D5000501F
:100E600049442D5000200220466163740020022076
:100E700046616374002002204D6178002002204DFD
:100E80006178002002204D696E002002204D696EBD
:100E9000004F6666004F6E004175746F74656D702B
:100EA00000416476616E6365642053657474696E95
:100EB0006773004732362048656174696E67204E5B
:100EC0006F7A7A6C652E0047323620486561746906
:100ED0006E67204265642E0057616974696E6720F1
:100EE000666F72206865617475702E0A00446F6EBB
:100EF00065205072696D696E6700557365722D4388
:100F00006F6E74726F6C6C6564205072696D6500F1
:100F10004669786564204C656E6774682050726914
:100F20006D652E004D6573682056616C696461744F
:100F3000696F6E2053746F707065642E004C65612C
:100F400076696E6720473236003F53706563696685
:100F500069656420582C5920636F6F7264696E61F3
:100F60007465206F7574206F6620626F756E647390
:100F70002E0A003F28522965706561742076616CE5
:100F80007565206E6F7420706C61757369626C6535
:100F90003B206D757374206265206174206C6561FF
:100FA000737420312E0A003F53706563696669656A
:100FB00064206E6F7A7A6C652074656D70657261FD
:100FC00074757265206E6F7420706C6175736962E0
:100FD0006C652E0A003F537065636966696564201D
:100FE00066696C616D656E742073697A65206E6FD9
:100FF0007420706C61757369626C652E0A003F53D2
:101000007065636966696564207072696D65206CDE
:10101000656E677468206E6F7420706C617573699B
:10102000626C652E0A003F5370656369666965648A
:10103000206E6F7A7A6C652073697A65206E6F74A2
:1010400020706C61757369626C652E0A003F526591
:101050007472616374696F6E204D756C7469706C25
:10106000696572206D7573742062652073706563A5
:1010700069666965642E0A003F5370656369666935
:1010800065642052657472616374696F6E204D757A
:101090006C7469706C696572206E6F7420706C611D
:1010A000757369626C652E0A003F537065636966EB
:1010B000696564206C617965722068656967687428
:1010C000206E6F7420706C61757369626C652E0A96
:1010D0000043292E0A003F537065636966696564A1
:1010E000206265642074656D7065726174757265E7
:1010F000206E6F7420706C61757369626C65202856
:1011000034302D00473236207374617274696E6713
:101110002E2E2E0A0024F4D43050C38E20C2A240BA
:1011200017828B7011127A910D816CD90AA861E136
:1011300008C7586607615143061E4B5D05C145A7A8
:10114000041A411104093D9803713931034036DB1B
:101150000265339102D4305402802E1D02632CEEBE
:1011600001752AC501B028A001102781018F2564CF
:10117000012B244B01E0223401AC211F018D200DF5
:1011800001801FFC00841EED00971DDF00B81CD2FB
:1011900000E61BC600201BBC00641AB200B219A8EE
:1011A000000A19A0006A189900D117910040178B06
:1011B00000B516840031167E00B31579003A157318
:1011C00000C7146F0058146A00EE1366008813639A
:1011D0000025135E00C7125B006C125700151254F5
:1011E00000C111510070114F0021114B00D6104960
:1011F000008D1047004610440002104200C00F400E
:1012000000800F3E00420F3C00060F3B00CB0E3823
:1012100000930E37005C0E3500270E3400F30D32BC
:1012200000C10D3100900D3000600D2E00320D2DEB
:1012300000050D2C00D90C2B00AE0C2900850C29C3
:10124000005C0C2700350C27000E0C2600E80B2450
:1012500000C40B2400A00B23007D0B23005A0B219C
:1012600000390B2100180B2000F80A1F00D90A1EB4
:1012700000BB0A1E009D0A1D00800A1D00630A1C97
:1012800000470A1B002C0A1B00110A1A00F7091A52
:1012900000DD091900C4091900AB091900920917EA
:1012A000007B091800630917004C0916003609165F
:1012B00000200916000A091500F5081500E00814B9
:1012C00000CC081400B8081400A4081400900813F7
:1012D000007D0812006B081300580812004608121F
:1012E0000034081100230811001208110001081130
:1012F00000F0071000E0071000D0071000C0071032
:1013000000B0070F00A107100091070E0083070F20
:101310000074070F0065070E0057070E0049070EFF
:10132000003B070D002E070E0020070D0013070DD0
:101330000006070D00F9060C00ED060D00E0060C96
:1013400000D4060C00C8060C00BC060C00B0060C4D
:1013500000A4060B0099060C008D060B0082060BFC
:101360000077060B006C060B0061060A0057060B9F
:10137000004C060A0042060A0038060A002E060A39
:101380000024060A001A060A001006090007060AC9
:1013900000FD050900F4050900EB050900E2050957
:1013A00000D9050900D0050900C7050900BE0509D7
:1013B00000B5050800AD050800A50509009C050855
:1013C00000940508008C050800840508007C0508C9
:1013D00000740508006C050700650508005D050739
:1013E00000560508004E05070047050700400508A0
:1013F0000038050700310507002A05070023050707
:10140000001C050600160507000F05070008050665
:101410000002050700FB040600F5040700EE0406C1
:1014200000E8040600E2040700DB040600D5040619
:1014300000CF040600C9040600C3040600BD04066C
:1014400000B7040600B1040500AC040600A60406BB
:1014500000A00405009B0406009504050090040606
:10146000008A04050085040500800406007A04054E
:101470000075040500700405006B04050066040592
:1014800000610405005C04050057040500520405D2
:10149000004D04050048040500430405003E040413
:1014A000003A04050035040500300404002C04054E
:1014B0000027040400230405001E0404001A040489
:1014C0000016040500110404000D040400090405BD
:1014D000000404040000040400FC030400F80304F6
:1014E00000F4030400F0030400EC030400E8030428
:1014F00000E4030400E0030400DC030400D8030458
:1015000000D4030400D0030400CC030400C8030388
:1015100000C503030024F404D9201BC40C5C0E98FE
:1015200004C4095F0265077101F405F900FB04B307
:101530000048048700C103690058035500030345B0
:1015400000BE023A008402310053022A002902251B
:101550000004022000E4011C00C8011900AF0117BB
:101560000098011400840113007101100061011042
:101570000051010E0043010D0036010B002B010B41
:101580000020010B00150109000C010900030108EE
:1015900000FB000800F3000800EB000700E4000671
:1015A00000DE000600D8000600D2000600CC0005D0
:1015B00000C7000500C2000500BD000400B900041A
:1015C00000B5000400B1000400AD000400A900044F
:1015D00000A5000300A20003009F0004009B00037D
:1015E00000980003009500020093000300900003A0
:1015F000008D0002008B00030088000200860002BC
:101600000084000300810002007F0002007D0002D0
:10161000007B0002007900020077000100760002E2
:10162000007400020072000100710002006F0002ED
:10163000006D0001006C0002006A000100690002F8
:1016400000670001006600010065000100640002FF
:10165000006200010061000100600001005F000203
:10166000005D0001005C0001005B0001005A000108
:101670000059000100580001005700010056000108
:101680000055000100540001005300000053000108
:10169000005200010051000100500001004F000104
:1016A000004E0000004E0001004D0001004C000102
:1016B000004B0000004B0001004A000100490001FE
:1016C00000480000004800010047000100460000FB
:1016D00000460001004500000045000100440001F3
:1016E00000430000004300010042000000420001EE
:1016F000004100000041000100400001003F0000E7
:10170000003F0001003E0000003E0001003D0000DF
:10171000003D0001003C0000003C0000003C0001D6
:10172000003B0000003B0001003A0000003A0001CD
:1017300000390000003900010038000000380000C6
:1017400000380001003700000037000100360000BB
:1017500000360000003600010035000000350000B2
:1017600000350001003400000034000000340001A6
:10177000003300000033000000330001003200009D
:101780000032000000320001003100000031000092
:101790000031000100300000003000000030000186
:1017A000002F0000002F0000002F0000002F00017C
:1017B000002E0000002E0000002E0001002D000071
:1017C000002D0000002D0000002D0001002C000065
:1017D000002C0000002C0000002C0001002B000059
:1017E000002B0000002B0000002B0001002A00004D
:1017F000002A0000002A0000002A00010029000041
:101800000029000000290000002900000029000133
:101810000028000000280000002800000028000028
:10182000002800010027000000270000002700001A
:10183000002700000027000100260000002600000D
:101840000026000000260000002600010025000000
:1018500000250000002500000025000000250000F4
:1018600000250001002400000024000000240000E6
:1018700000240000002400010023000000230000D9
:1018800000230000002300000023000000230000CC
:1018900000230001002200000022000000220000BE
:1018A00000220000002200000022000100210000B0
:1018B00000210000002100000021000000210000A4
:1018C0000021000000210001002000000020000095
:1018D0000020000000200000002000000020000088
:1018E0000020000000200001001F0000001F000079
:1018F000001F0000001F0000001F0000001F00006C
:10190000001F0001001E0000001E0000001E00005D
:10191000001E000000043700001E290000511B00BB
:10192000005810000010090000CC040000780200EC
:101930000041010000626564002C207379737465B6
:101940006D2073746F7070656421204865617465E3
:10195000725F49443A2000426564204865617469B9
:101960006E67204661696C65640048656174696EE4
:1019700067206661696C65640042454420544845AF
:10198000524D414C2052554E4157415900546865C3
:10199000726D616C2052756E6177617900453120FE
:1019A00048656174696E67204661696C65640048CA
:1019B000656174696E67206661696C6564004531B4
:1019C00020544845524D414C2052554E41574159A3
:1019D00000546865726D616C2052756E6177617933
:1019E00000220A00656E7175657565696E67202253
:1019F000006F6B00526573656E643A200053544F5C
:101A0000505045442E20005072696E7465722073E8
:101A1000746F707065642064756520746F206572E2
:101A2000726F72732E204669782074686520657223
:101A3000726F7220616E6420757365204D3939397B
:101A400020746F20726573746172742E202854653F
:101A50006D7065726174757265206973207265734B
:101A600065742E20536574206974206166746572F4
:101A70002072657374617274696E67290A004E6F13
:101A800020436865636B73756D2077697468206C9B
:101A9000696E65206E756D6265722C204C61737481
:101AA000204C696E653A20004E6F20436865636B79
:101AB00073756D2077697468206C696E65206E752A
:101AC0006D6265722C204C617374204C696E653AAE
:101AD0002000636865636B73756D206D69736D615C
:101AE0007463682C204C617374204C696E653A20D5
:101AF000004C696E65204E756D62657220697320B9
:101B00006E6F74204C617374204C696E65204E7545
:101B10006D6265722B312C204C617374204C696EA0
:101B2000653A20004D313130004D313137004D33B1
:101B3000310053442072656164206572726F720ACD
:101B400000446F6E65207072696E74696E672066FE
:101B5000696C650A002569730025696D2025697324
:101B6000002569682025696D202569730025696451
:101B7000202569682025696D20256973002569790C
:101B800020256964202569682025696D20256973F1
:101B90000023646566696E652044454641554C5492
:101BA0005F004B6420004B6920004B7020005049BF
:101BB00044204175746F74756E652066696E697333
:101BC000686564212050757420746865206C6173A9
:101BD00074204B702C204B6920616E64204B642074
:101BE000636F6E7374616E74732066726F6D2062C2
:101BF000656C6F7720696E746F20436F6E666967DE
:101C000075726174696F6E2E680A005049442041F4
:101C100075746F74756E65206661696C65642120EA
:101C200074696D656F75740A0045312054484552DA
:101C30004D414C2052554E415741590054686572F0
:101C40006D616C2052756E61776179004531204875
:101C5000656174696E67204661696C6564004865FA
:101C60006174696E67206661696C656400504944FF
:101C7000204175746F74756E65206661696C65646A
:101C8000212054656D706572617475726520746F82
:101C90006F20686967680A00204B643A2000204B77
:101CA000693A2000204B703A20000A20436C61738F
:101CB00073696320504944200A002054753A20007B
:101CC000204B753A2000206D61783A2000206D6924
:101CD0006E3A200020643A200020626961733A2045
:101CE00000504944204175746F74756E652073749B
:101CF0006172740A00504944204175746F74756EA6
:101D000065206661696C6564212054656D7065723B
:101D1000617475726520746F6F20686967680A0066
:101D2000504944204175746F74756E652066616911
:101D30006C65642120426164206578747275646505
:101D400072206E756D6265720A00A1000000690064
:101D5000A20000006300B00000000900C100000004
:101D60004100C20000004100C30000004100C40067
:101D700000004100C50000004100C60000004145D0
:101D8000C70000004300C80000004500C900000073
:101D90004500CD0000004900D10000004E00D500F4
:101DA00000004F00D60000004F00D7000000780070
:101DB000DC0000005500DD0000005900E0000000DC
:101DC0006100E10000006100E20000006100E3004A
:101DD00000006100E40000006100E5000000610017
:101DE000E60000006165E70000006300E800000015
:101DF0006500E90000006500EA0000006500EB00F6
:101E000000006500EC0000006900ED0000006900C2
:101E1000EE0000006900EF0000006900F100000022
:101E20006E00F20000006F00F30000006F00F4008D
:101E300000006F00F50000006F00F60000006F006A
:101E4000F80000006F00F90000007500FA000000C3
:101E50007500FB0000007500FC0000007500FD002F
:101E600000007900FF00000079000401000041003B
:101E700005010000610006010000430007010000A9
:101E800063000C01000043000D01000063000E011F
:101E9000000044000F010000640011010000640014
:101EA0001901000065001F010000670030010000FB
:101EB0004900310100006900410100004C0042016D
:101EC00000006C00430100004E00440100006E0061
:101ED000480100006E005901000072005A01000024
:101EE00053005B01000073005F010000730060019C
:101EF00000005300610100007300650100007400E0
:101F00006F01000075007C0100007A007D01000077
:101F10005A007E0100007A00920100006600E30290
:101F200000007800840300002700850300002700DC
:101F3000860300004100870300002E008803000094
:101F400045008903000048008A03000049008C0313
:101F500000004F008E03000059008F0300004F0067
:101F6000900300006900910300004100920300000B
:101F700042009303000054009403000034009503D2
:101F800000004500960300005A0097030000480037
:101F90009803000030009903000049009A030000F4
:101FA0004B009B0300005E009C0300004D009D035E
:101FB00000004E009E03000033009F0300004F000E
:101FC000A00300006E00A10300005000A303000066
:101FD0004500A40300005400A50300005900A60317
:101FE00000007000A70300005800A8030000500084
:101FF000A90300004F00AA0300004900AB03000042
:102000005900AC0300006100AD0300006500AE03A1
:1020100000006E00AF0300006900B003000076000E
:10202000B10300006100B20300004200B3030000EE
:102030007600B40300006400B50300006500B60339
:1020400000005A00B70300006E00B8030000300023
:10205000B90300006900BA0300006B00BB03000075
:102060004C00BC0300007500BD0300007600BE03F9
:1020700000006500BF0300006F00C00300006E0099
:10208000C10300007000C20300006300C30300002E
:102090006F00C40300007400C50300007600C6038F
:1020A00000007000C70300005800C803000057007C
:1020B000C90300007700CA0300006900CB030000D9
:1020C0007600CC0300006F00CD0300007600CE0345
:1020D00000007700010400004500100400004100EA
:1020E000110400006200120400004200130400000A
:1020F00054001404000051001504000045001604AB
:1021000000002A00170400004500180400004E00DB
:10211000190400004E001A0400004B001B040000CC
:1021200054001C0400004D001D04000048001E0463
:1021300000004F001F0400006E002004000050004B
:102140002104000043002204000054002304000086
:102150005900240400006F002504000058002604E4
:1021600000005500270400007900280400005700F3
:102170002904000057002A04000062002B0400001C
:10218000627C2C04000062002D04000065002E0417
:1021900000007C4F2F040000397C300400006100F7
:1021A0003104000036003204000042003304000015
:1021B000720034040000610035040000650036043C
:1021C00000002A0037040000650038040000750094
:1021D0003904000075003A0400006B003B04000065
:1021E0006E003C0400006D003D04000048003E0409
:1021F00000006F003F0400006E004004000070000B
:102200004104000063004204000074004304000025
:102210007900440400007170450400007800460411
:1022200000007500470400007900480400007700B2
:102230004904000077004A04000062004B040000DB
:10224000627C4C04000062004D04000065004E04F6
:1022500000007C6F4F04000067005104000065001F
:10226000222000002E001E210000507822210000B4
:10227000544D902100003C2D922100002D3EB021B4
:1022800000000300BB21000004003C2200007E008F
:10229000482200007E3D60220000213D61220000B6
:1022A0003D00642200003C3D652200003E3DF123DC
:1022B00000000700A03000003D0021F301000200F3
:1022C000C2F401000500A2000000EC00B000000014
:1022D000DF00E4000000E100F6000000EF00F7007E
:1022E0000000FD00FC000000F500E3020000EB0030
:1022F00087030000A5008F030000F400980300008E
:10230000F2009E030000E300A3030000F600A9030F
:102310000000F400AC030000E000AD030000E300A7
:10232000B1030000E000B2030000E200B5030000CA
:10233000E300B8030000F200BC030000E400BE03A9
:102340000000E300C0030000F700C1030000E60046
:10235000C3030000E500902100007F0092210000EF
:102360007E001A220000E8001E220000F3008825EB
:102370000000FF0002300000A1000C300000A200AD
:102380000D300000A3009B300000DE009C300000F8
:10239000DF00A03000003D00A1300000A700A23007
:1023A0000000B100A3300000A800A4300000B2007B
:1023B000A5300000A900A6300000B300A73000003F
:1023C000AA00A8300000B400A9300000AB00AA3079
:1023D0000000B500AB300000B600AC300000B6DE47
:1023E000AD300000B700AE300000B7DEAF30000007
:1023F000B800B0300000B8DEB1300000B900B23033
:102400000000B9DEB3300000BA00B4300000BADE1C
:10241000B5300000BB00B6300000BBDEB7300000B6
:10242000BC00B8300000BCDEB9300000BD00BA30DE
:102430000000BDDEBB300000BE00BC300000BEDED0
:10244000BD300000BF00BE300000BFDEBF30000066
:10245000C000C0300000C0DEC1300000C100C2308A
:102460000000C1DEC3300000AF00C4300000C20075
:10247000C5300000C2DEC6300000C300C730000017
:10248000C3DEC8300000C400C9300000C4DECA305A
:102490000000C500CB300000C600CC300000C700F3
:1024A000CD300000C800CE300000C900CF300000A1
:1024B000CA00D0300000CADED1300000CADFD230FE
:1024C0000000CB00D3300000CBDED4300000CBDFE7
:1024D000D5300000CC00D6300000CCDED730000074
:1024E000CCDFD8300000CD00D9300000CDDEDA30AE
:1024F0000000CDDFDB300000CE00DC300000CEDE9F
:10250000DD300000CEDFDE300000CF00DF30000025
:10251000D000E0300000D100E1300000D200E23015
:102520000000D300E3300000AC00E4300000D40031
:10253000E5300000AD00E6300000D500E7300000D7
:10254000AE00E8300000D600E9300000D700EA30E5
:102550000000D800EB300000D900EC300000DA00B9
:10256000ED300000DB00EF300000DC00F230000056
:10257000A600F3300000DD00F4300000B3DEF730D9
:102580000000DCDEFA300000A6DEFB300000A50013
:10259000FC300000B000FD300000A400074E000039
:1025A000FB0086510000FC0043530000FA0064FF6A
:1025B0000000A40065FF0000A50066FF0000A60063
:1025C00067FF0000A70068FF0000A80069FF000087
:1025D000A9006AFF0000AA006BFF0000AB006CFFBF
:1025E0000000AC006DFF0000AD006EFF0000AE000B
:1025F0006FFF0000AF0070FF0000B00071FF00002F
:10260000B10072FF0000B20073FF0000B30074FF5E
:102610000000B40075FF0000B50076FF0000B600B2
:1026200077FF0000B70078FF0000B80079FF0000D6
:10263000B9007AFF0000BA007BFF0000BB007CFFFE
:102640000000BC007DFF0000BD007EFF0000BE005A
:102650007FFF0000BF0080FF0000C00081FF00007E
:10266000C10082FF0000C20083FF0000C30084FF9E
:102670000000C40085FF0000C50086FF0000C60002
:1026800087FF0000C70088FF0000C80089FF000026
:10269000C9008AFF0000CA008BFF0000CB008CFF3E
:1026A0000000CC008DFF0000CD008EFF0000CE00AA
:1026B0008FFF0000CF0090FF0000D00091FF0000CE
:1026C000D10092FF0000D20093FF0000D30094FFDE
:1026D0000000D40095FF0000D50096FF0000D60052
:1026E00097FF0000D70098FF0000D80099FF000076
:1026F000D9009AFF0000DA009BFF0000DB009CFF7E
:102700000000DC009DFF0000DD009EFF0000DE00F9
:102710009FFF0000DF00E5FF00005C00687474703C
:102720003A2F2F6D61726C696E66772E6F7267003B
:10273000687474703A2F2F6D61726C696E66772EB3
:102740006F726700687474703A2F2F6D61726C69D4
:102750006E66772E6F7267006275676669782D32D4
:102760002E302E78006275676669782D322E302EF5
:1027700078006275676669782D322E302E780000F9
:10278000687474703A2F2F6D61726C696E66772E63
:102790006F726700687474703A2F2F6D61726C6984
:1027A0006E66772E6F726700687474703A2F2F6DA3
:1027B00061726C696E66772E6F7267002062756752
:1027C0006669782D322E302E78002020506C616E94
:1027D0006E657242756666657242797465733A20F9
:1027E000002046726565204D656D6F72793A200054
:1027F000436F6D70696C65643A20417567202033C2
:1028000020323031390A00207C20417574686F72A3
:102810003A202854656C6C69204D616E74656C6C4F
:10282000692C204B726973205761636C6177736BFD
:10283000692C2053616D75656C2050696E63686505
:10284000732026204D69636861656C2047696C615F
:102850007264692C203372642041756720323031F4
:1028600039290A00323031392D30372D33300020EC
:102870004C61737420557064617465643A20006221
:1028800075676669782D322E302E780A004D617298
:102890006C696E0020536F667477617265205265B3
:1028A0007365740A00205761746368646F6720520F
:1028B000657365740A002042726F776E206F7574BD
:1028C0002052657365740A002045787465726E61E4
:1028D0006C2052657365740A00506F77657255708D
:1028E0000A0073746172740A006175746F25632E37
:1028F00067006572726F722077726974696E672003
:10290000746F2066696C650A00446F6E65207361A0
:1029100076696E672066696C652E0A004D32390053
:10292000456E6473746F70732025632025632025C2
:102930006320256300205A3A0020593A0020583A73
:1029400000656E6473746F7073206869743A200058
:1029500047323700507265686561742041425320E8
:10296000456E640050726568656174204142532071
:10297000426564005072656865617420414253008D
:1029800054656D706572617475726500436F6F6C2C
:10299000646F776E005072656865617420414253C0
:1029A000005072656865617420504C410046616E4C
:1029B00020537065656420320046616E2053706557
:1029C000656420320046616E205370656564203175
:1029D0000046616E20537065656420310042656475
:1029E00000426564004E6F7A7A6C65004E6F7A7AA9
:1029F0006C65004D61696E00426162797374657047
:102A0000205A004261627973746570205A00466CE6
:102A10006F7700466C6F770046616E205370656576
:102A20006420320046616E20537065656420320078
:102A300046616E20537065656420310046616E20EA
:102A4000537065656420310042656400426564002E
:102A50004E6F7A7A6C65004E6F7A7A6C65004265CB
:102A600064205A00426564205A0053706565640012
:102A70005370656564004D61696E00F001130110CB
:102A8000020E01300204016002FD009002F8000015
:102A900003EF008003E8002004DE00E004D400D04F
:102AA00005CE00A006C7006007BF002008BA00E0FE
:102AB00009B000B00BA700000E9E00E010940010BB
:102AC000148900B0177F00E01B750060206A0010B9
:102AD000256000C0295600302E4C00F02F4800E041
:102AE000333E0060383000E0392D00B03B230060F9
:102AF0003C1E00103D1900903D1400103E0F007068
:102B00003E0A00C03E0500003F0000403FFBFF8042
:102B10003FF6FFC03FF1FF202D20496E76616C69C2
:102B200064206578747275646572206E756D626577
:102B30007220210A0070012C0190012701B00122AE
:102B400001C0011D01F00118011002130130020E35
:102B5000016002090190020401C002FF000003FAB3
:102B6000004003F5008003F000D003EB002004E6F2
:102B7000007004E100E004DC004005D700C005D28D
:102B8000004006CD00D006C8008007C3003008BE54
:102B900000F008B900C009B400B00AAF00B00BAA39
:102BA00000D00CA500000EA000500F9B00C0109696
:102BB000005012910000148C00C0158700B01782DD
:102BC00000B0197D00D01B7800001E730040206EFD
:102BD0000090226900F024640040275F0090295A89
:102BE00000E02B5500102E500020304B00103246D4
:102BF00000E033410090353C001037370070383228
:102C000000A0392D00B03A2800A03B2300603C1EF4
:102C100000103D1900903D1400103E0F00703E0A58
:102C200000C03E0500003F0000403FFBFF803FF634
:102C3000FFC03FF1FF453120544845524D414C20E3
:102C400052554E415741590042454420544845523F
:102C50004D414C2052554E415741590054686572C0
:102C60006D616C2052756E61776179004531204548
:102C700072723A204D415854454D50004572723A97
:102C8000204D415854454D5020424544004D415837
:102C900054454D50207472696767657265640045DC
:102CA00031204572723A204D494E54454D500045F1
:102CB00072723A204D494E54454D502042454400D1
:102CC0004D494E54454D5020747269676765726571
:102CD00064004D383420582059205A204500202FB8
:102CE000002042403A0020403A0020573A00205746
:102CF0003A00496E76616C69642065787472756417
:102D000065720A00506C6561736520526573657465
:102D1000005052494E5445522048414C54454400BD
:102D20004B494C4C45442E20005072696E746572BC
:102D30002068616C7465642E206B696C6C28292096
:102D400063616C6C6564210A006563686F3A0045D5
:102D500072726F723A000A4D656173757265642014
:102D6000706F696E74733A0A00486F74656E642000
:102D7000746F6F20636F6C640A004D3630303A20F8
:102D8000546F6F20436F6C6400486F74656E6420ED
:102D9000746F6F20636F6C640A00507265737320E8
:102DA000627574746F6E20746F20726573756D65D3
:102DB0000A00496E736572742066696C616D656E98
:102DC0007420616E64207072657373206275747410
:102DD0006F6E0A00507265737320627574746F6E43
:102DE00020746F2068656174206E6F7A7A6C650A52
:102DF00000496E736572742066696C616D656E74EE
:102E000020616E6420707265737320627574746FD4
:102E10006E20286F72204D313038290A0043616ED0
:102E20006E6F74206F70656E2073756264697220B6
:102E30000053442063617264206F6B0A006F7065F9
:102E40006E526F6F74206661696C65640A00766FFC
:102E50006C756D652E696E6974206661696C656458
:102E60000A00534420696E6974206661696C0A0027
:102E70004D3234004D323320257300577269746926
:102E80006E6720746F2066696C653A20002E0A0018
:102E90006F70656E206661696C65642C2046696C94
:102EA000653A20002E0A006F70656E206661696CBD
:102EB00065642C2046696C653A200046696C652083
:102EC00073656C65637465640A002053697A653ABA
:102ED000200046696C65206F70656E65643A20005D
:102EE000667265736800646F696E67002066696C5E
:102EF000653A20004E6F772000454E4420535542DE
:102F0000524F5554494E450A002220706F730022DB
:102F100020706172656E743A2200535542524F55CB
:102F200054494E452043414C4C207461726765748E
:102F30003A2200747279696E6720746F2063616C45
:102F40006C207375622D67636F64652066696C65BC
:102F500073207769746820746F6F206D616E7920BB
:102F60006C6576656C732E204D4158206C657665D6
:102F70006C2069733A310A0002220A00556E6B6EAA
:102F80006F776E20636F6D6D616E643A2022002052
:102F9000746F6F206C6F6E672065787472757369DB
:102FA0006F6E2070726576656E7465640A002063CA
:102FB0006F6C6420657874727573696F6E207072BF
:102FC0006576656E7465640A00001C1F11111F0090
:102FD000000006191803130C00040E1F041C000047
:102FE00000000E1315110E00001C10181705060521
:102FF00000040A0A0A0A11110E0C12120C00000039
:1030000000001F1511151F00002D2D2D2D2D2D0039
:103010007C4D61726C696E7C002D2D2D2D2D2D0047
:1030200000000000010204040000001C1C0C040449
:10303000040201000000000004081000000000006D
:103040004A474175726F7261204135205265616453
:10305000792E005072696E74696E672E2E2E0050A4
:1030600072696E7420506175736564005072696E88
:10307000742041626F72746564000000A0C000009B
:103080000000000000000000A0420000A04200007C
:1030900040415761726E696E673A20486F6D696E84
:1030A000672042756D702044697669736F72203CA9
:1030B00020310A000A0A060000A0400000A04000DB
:1030C00000004000009B43008098430000A043FFA5
:1030D000FFFF4D6F76652058004D6F7665205900D3
:1030E0004D6F7665205A004578747275646572007C
:1030F0004578747275646572004D6F7665205A006C
:103100004D6F76652059004D6F76652058004D6FE4
:1031100074696F6E0044697361626C6520537465F5
:103120007070657273004D383400426564204C65E0
:1031300076656C696E67004175746F20486F6D65C8
:1031400000473238004D6F76652041786973004D35
:1031500061696E003F005374617274205072696E31
:1031600074200043616E63656C005072696E740078
:1031700043616E6E6F7420656E7465722073756244
:103180006469723A2000052E2E004D61696E005070
:1031900072656865617420504C4120456E64005032
:1031A00072656865617420504C412042656400502E
:1031B00072656865617420504C410054656D70659E
:1031C000726174757265005654726176204D696E35
:1031D000005654726176204D696E00566D696E001E
:1031E000566D696E00566D6178204500566D6178A8
:1031F000204500566D6178205A00566D6178205A3E
:1032000000566D6178205900566D6178205900563E
:103210006D6178205800566D6178205800416476C1
:10322000616E6365642053657474696E67730041F1
:103230006D6178204500416D6178204500416D61E8
:1032400078205A00416D6178205A00416D617820E4
:103250005900416D6178205900416D617820580016
:10326000416D6178205800412D54726176656C0083
:10327000412D54726176656C00412D526574726106
:10328000637400412D52657472616374004163631D
:10329000656C00416363656C00416476616E6365D3
:1032A000642053657474696E6773004572726F723F
:1032B0002077726974696E6720746F20454550529B
:1032C0004F4D210A00363726033C3D380E2E303E46
:1032D000121A1C1808440AFF430809070001627506
:1032E00073793A2070617573656420666F72206926
:1032F0006E7075740A00627573793A207061757327
:10330000656420666F7220757365720A006275735A
:10331000793A2070726F63657373696E670A004D46
:10332000363030004B494C4C206361757365642026
:103330006279204B494C4C20627574746F6E2F700B
:10334000696E0A004B494C4C2063617573656420BB
:10335000627920746F6F206D75636820696E616398
:10336000746976652074696D65202D2063757272AD
:10337000656E7420636F6D6D616E643A20000000AD
:1033800020002300260029002C002F00320000011D
:1033900000000301060109010505050507050808E8
:1033A0000808020202020A0A0808040404040101CF
:1033B00001010101010103030303030303030407E4
:1033C00007070C0C0C0C0C0C0C0C0202020206067B
:1033D0000606060606060B0B0B0B0B0B0B0B01026E
:1033E0001020200808102040102040800201020117
:1033F00008040201010204081020408080402010CF
:103400000804020180040201804020100804020127
:10341000080402010102040810204080010204088F
:103420001020408000000A0B02090C0D0E08070353
:103430000401000000000000000000000000000087
:10344000000000000000000000000000000000007C
:103450001211100000000000000000000000000039
:10346000000000000000000000004D6F7665202580
:10347000736D6D00004D6F766520302E316D6D00DF
:103480004D6F766520316D6D004D6F766520313062
:103490006D6D004D6F7665204178697300486F74DB
:1034A000656E6420746F6F20636F6C640045787480
:1034B0007275646572004D6F7665205A004D6F76A7
:1034C000652059004D6F7665205800473238004816
:1034D0006F6D65202573257325732046697273749B
:1034E000002046697273740A00486F6D65200025DC
:1034F000753A2530327500253032753A25303275EF
:10350000002D2D2D005344002020202020202000BD
:103510002020202000436172642052656D6F766523
:1035200064004361726420496E736572746564005F
:103530004C6F61642053657474696E6773005265E3
:1035400073746F7265206661696C736166650053A0
:10355000746F72652053657474696E67730050727E
:1035600065686561742041425320436F6E66005068
:1035700072656865617420504C4120436F6E66002F
:103580004F6666004F6E0052756E6F7574205365FE
:103590006E736F7200416476616E6365642053657B
:1035A0007474696E6773004D61696E004D37303217
:1035B00020542564004D363030204230205425649C
:1035C000004D373032203B2564004D3730312054D8
:1035D0002564004368616E67652046696C616D65AE
:1035E0006E74005072656865617420437573746F02
:1035F0006D005072656865617420414253005072DD
:10360000656865617420504C410050726568656161
:103610007420437573746F6D004261636B00436F78
:103620006E74696E7565004F6666004F6E00527568
:103630006E6F75742053656E736F7200507572678C
:1036400065206D6F726500524553554D45204F50B2
:1036500054494F4E533A005052494E542050415510
:1036600053454400554E4C4F41442046494C414D32
:10367000454E54004C4F41442046494C414D454E27
:10368000540020204E6F7A7A6C653A200020004862
:10369000617264636F6465642044656661756C740F
:1036A0002053657474696E6773204C6F6164656440
:1036B0000A00E8030000F401000064000000881321
:1036C00000000000FA430000FA43000070410000CF
:1036D000C8410000A0420000A04200004844000091
:1036E000C842486F6D696E67204661696C65640009
:1036F0006F70656E00545249474745524544003A41
:10370000200066696C616D656E74007A5F6D696E2C
:1037100000795F6D696E00785F6D696E005265704B
:103720006F7274696E6720656E6473746F70207356
:1037300074617475730A00205A3A0020593A0020C7
:10374000436F756E7420583A0020453A00205A3A6B
:103750000020593A00583A0020746F6F206C6F6E49
:103760006720657874727573696F6E207072657604
:10377000656E7465640A0020636F6C6420657874FC
:10378000727573696F6E2070726576656E746564AC
:103790000A005061726B696E672E2E2E00746F20C6
:1037A00073746172740066696C616D656E74206318
:1037B00068616E6765005761697420666F720066A4
:1037C000696C616D656E7420756E6C6F6164005715
:1037D00061697420666F7200506C65617365207753
:1037E0006169742E2E2E004E6F7A7A6C65206865A2
:1037F0006174696E6700746F2068656174206E6F14
:103800007A7A6C6500507265737320627574746F98
:103810006E00746F20636F6E74696E756500616E03
:103820006420707265737320627574746F6E0049E2
:103830006E736572742066696C616D656E74006686
:10384000696C616D656E74206C6F616400576169AD
:103850007420666F7200746F20726573756D6520D9
:103860007072696E7400507265737320427574745F
:103870006F6E00746F20726573756D652E2E2E004D
:103880005761697420666F72207072696E74006689
:10389000696C616D656E7420707572676500576143
:1038A000697420666F72003F0053746F702050720D
:1038B000696E74004261636B0053746F70004D3227
:1038C0003520500A4D3234005072696E74205061B8
:1038D00075736564005061757365205072696E740C
:1038E000004D3234005072696E742066726F6D2024
:1038F0005344004368616E676520534420436172FE
:1039000064004D3231004368616E67652046696C22
:10391000616D656E74004368616E67652046696C11
:10392000616D656E74004D36303020423000436F5B
:103930006E66696775726174696F6E0054656D704B
:1039400065726174757265004D6F74696F6E0052B7
:103950006573756D65205072696E74004E6F2053EB
:103960004420436172640054756E650053746F7037
:10397000205072696E7400506175736520507269D1
:103980006E7400496E666F2053637265656E002E1B
:103990000A006F70656E206661696C65642C204654
:1039A000696C653A2000206E6F7420656E746572D4
:1039B00065642E0A00206F6620004D424C2047327D
:1039C0003920706F696E742000290A004A206F75D3
:1039D00074206F662072616E67652028302D002983
:1039E0000A0049206F7574206F662072616E6765EA
:1039F0002028302D004D6573682070726F62696EEB
:103A00006720646F6E652E0A005374617274206DB6
:103A10006573682070726F62696E67207769746879
:103A20002022473239205331222066697273742E66
:103A30000A004732380A473239205332006861732E
:103A4000206E6F20646174612E0A004D65736820DA
:103A5000426564204C6576656C696E672000532072
:103A60006F7574206F662072616E67652028302D37
:103A700035292E0A0020496E76616C6964206578CC
:103A8000747275646572200056652D4A65726B000C
:103A900056652D4A65726B00567A2D4A65726B0029
:103AA000567A2D4A65726B0056792D4A65726B0005
:103AB00056792D4A65726B0056782D4A65726B00F7
:103AC00056782D4A65726B00416476616E63656459
:103AD0002053657474696E67730045737465707301
:103AE0002F6D6D004573746570732F6D6D005A7383
:103AF000746570732F6D6D005A73746570732F6DDC
:103B00006D005973746570732F6D6D005973746512
:103B100070732F6D6D005873746570732F6D6D0029
:103B20005873746570732F6D6D00416476616E63B8
:103B300065642053657474696E6773003F00496E55
:103B4000697469616C697A6520454550524F4D0032
:103B500043616E63656C00496E697400000021006A
:103B6000240027002A002D0030003300010100004E
:103B7000040107010A0100002200250028002B0093
:103B80002E003100340002010000050108010B0184
:103B90004361703A0000C100450111241FBECFEF00
:103BA000D1E2DEBFCDBF00E00CBF13E0A0E0B2E089
:103BB000ECE8FFE202E00BBF02C007900D92A638CE
:103BC000B107D9F724E1A6E8B3E001C01D92A23104
:103BD000B207E1F71DE1CCECDDE100E006C0219782
:103BE0000109802FFE010F94A014CB3CD10780E087
:103BF0000807A9F70E9417FD0D94B4170C94000054
:103C00002F923F924F925F926F927F928F929F92EC
:103C1000AF92BF92CF92DF92EF92FF920F931F93DA
:103C2000CF93DF93CDB7DEB7E1970FB6F894DEBF41
:103C30000FBECDBF89AB20918F0328AB21E020932D
:103C40008F0380910B148D3409F463C2843511F411
:103C50000C94FF2F873411F00C94063080910914D6
:103C600090910A148B31910509F41DC1A4F484309C
:103C7000910509F4D9C01CF4029768F146C2853158
:103C8000910511F40C9408304A9709F03EC20E9445
:103C90008F590C9408308A32910509F4BEC15CF446
:103CA0008C31910509F428C14D9709F02EC20E946C
:103CB000F3F30C9408308B35910509F42CC18C3545
:103CC000910509F42CC18A35910509F01EC21092A4
:103CD0009A030C94083080910F02882311F40C94FD
:103CE000083041E7842E42E0942E5AE1E52E5FE051
:103CF000F52E0FE112E062EFA62E6DE0B62E76E90A
:103D0000C72E73E0D72E712CD4018D914D010E94E6
:103D10007359882319F10E943C59F6012081211121
:103D200004C020919A03222341F0D8012D913D91A6
:103D30004D915C910F94A9140AC0B3E07B1639F041
:103D4000F50120813181428153810F94A814D7015C
:103D50006D937D938D939C9313970AC0F801808196
:103D60009181A281B381F70180839183A283B38380
:103D70007394F4E0EF0EF11C0C5F1F4F24E0A20ED1
:103D8000B11C3FEFC31AD30A84E07812BDCF40E0E4
:103D900050E0BA0186E40E94116E20E030E0A901F3
:103DA0000F947016181684F40E943C5920E030E0FD
:103DB00040E752E40F9431156093630270936402FC
:103DC000809365029093660280914A0D83FD28C01E
:103DD0008091AD05882321F120912B0230912C0296
:103DE00040912D0250912E026091260F7091270F65
:103DF0008091280F9091290F0F94A8142091BA0553
:103E00003091BB054091BC055091BD050F94A9149C
:103E10006093BA057093BB058093BC059093BD0574
:103E20000E9455E20C94083080E50E947359882363
:103E300029F00E94E3F36B017C0103C0C12CD12C5B
:103E4000760183E50E947359882361F00E943C59F2
:103E500020E030E04AE754E40F940B0E0F94AA15CB
:103E60006B017C010E9496B980911F08811105C0E9
:103E700060E08DE695E00E943BB40E940FFBC60E09
:103E8000D71EE81EF91E0E940FFBDC01CB018C1926
:103E90009D09AE09BF09B7FD02C00C94083080E04F
:103EA0000E948CC9F0CF0E947CCE81110C94083006
:103EB00080E090E0A0EAB0E489839A83AB83BC837E
:103EC00080E090E8A3E9B3E48D839E83AF83B88755
:103ED00080E090E0A0EAB1E489879A87AB87BC874D
:103EE00060E070E080E50E94D0F3BE016F5F7F4F1D
:103EF0000E94BCAF0C94083080912B0F87708730E4
:103F000011F00C9411308FE40E94B3A281110C9433
:103F100008300C94113020939A030C94083081E7F8
:103F2000282E82E0382E9EEFE92E9DE0F92E2FE11B
:103F300032E03DA32CA322EFC22E2DE0D22E00E0D2
:103F400010E0D1018D911D010E947359882309F45D
:103F50004BC00E943C592B013C01133049F0F60143
:103F600020813181428153810F94A8142B013C019F
:103F7000ACA1BDA12D913D914D915C91C301B201C8
:103F80000F94A8144B015C012DEB37E346E855EB89
:103F90000F94701687FD0AC02DEB37E346E855E312
:103FA000C501B4010F94A50D1816F4F4133051F4A3
:103FB00040922B0250922C0260922D0270922E029F
:103FC00001E012C0A5019401F70160817181828135
:103FD00093810F94A914D7016D937D938D939C9336
:103FE0001397812F0E948CBD1F5FB4E0EB0EF11C74
:103FF000ECA1FDA13496FDA3ECA3F4E0CF0ED11CFF
:10400000143009F09ECF002321F08BE292E00E9451
:10401000A7B90E94F2E60C94083080910F02882321
:1040200011F40C94083089E40E947359E82E882317
:1040300021F00E943859082F01C000E08AE40E9454
:104040007359F82E882321F00E943859182F01C087
:1040500010E0EE2011F0053020F4FF2041F0153083
:1040600030F086E795E00E94B0880C9408300E94FA
:10407000E657EE2091F024E00202F0011124E85905
:10408000FD4E80819181A281B38180931A0F90931C
:104090001B0FA0931C0FB0931D0FFF2091F034E075
:1040A0001302F0011124EC5AFD4E80819181A2810E
:1040B000B38180931E0F90931F0FA093200FB09396
:1040C000210F80E50E94B3A240E050E0BA0186E4EF
:1040D0000E94116E6B017C0120E030E0A9010F9479
:1040E000701618160CF09CCE20E030E040E752E449
:1040F000C701B6010F943115609363027093640297
:1041000080936502909366028BCE0E94A5A20C94C8
:1041100008308091091490910A148337910509F4AD
:10412000A6C70CF0B2C08C34910509F41CC40CF085
:1041300055C08931910509F4BAC21CF58431910545
:1041400009F43FC27CF48131910509F42BC22CF4AF
:10415000029708F4ABC10C94FC2F429709F465C692
:104160000C94FC2F8631910509F455C20CF44FC212
:104170008731910509F458C2489709F46BC20C9431
:10418000FC2F8E31910509F408C3ACF48B319105F5
:1041900009F4A6C20CF496C28C31910509F4F3C25D
:1041A0004D9711F00C94FC2F809195138E7F809386
:1041B00095130C9408308032910509F44DC30CF42A
:1041C00090C38A32910509F4ACC38B34910511F088
:1041D0000C94FC2F0E94C7B70C94083089369105C7
:1041E00009F494C544F58335910509F41AC69CF485
:1041F0008E34910509F4BFC30CF4B9C38135910520
:1042000009F4FAC58235910511F00C94FC2F109237
:1042100099030C9408308535910509F43BC60CF4DC
:1042200004C68C35910509F450C68836910509F409
:1042300034C40C94FC2F8E36910509F4B0C484F478
:104240008B36910509F4C6C50CF49CC58C369105D6
:1042500009F4FCC48D36910509F443C40C94FC2F79
:104260008037910509F4F8C40CF4ACC4813791058A
:1042700009F4FCC48237910511F00C94FC2F0E94C4
:1042800096B90E94F2E60C940830823E910511F432
:104290000C94532B0CF07FC08E3B910509F421C583
:1042A000D4F58937910509F490C7ECF48637910568
:1042B00009F456C734F48537910509F441C70C94C5
:1042C000FC2F8737910509F47DC78837910511F0D8
:1042D0000C94FC2F81E08093BF058093BE050E9463
:1042E0002DE80C9408308C38910509F4E4C44CF4A2
:1042F0008D37910511F00C94FC2F0E94F4F20C9470
:1043000008308139910509F467C78B39910509F4A3
:1043100011C50C94FC2F8D3C910511F40C940C2AC2
:10432000C4F4893C910511F40C94932934F4883C2D
:10433000910509F4ABC70C94FC2F8B3C910511F44B
:104340000C94B7298C3C910511F40C94D8290C9449
:10435000FC2F833D910511F40C943A2A84F48E3C91
:10436000910511F00C94FC2F31E7C32E32E0D32ECF
:1043700042ECE42E45E0F42E10E00C94272A8C3D0C
:10438000910511F40C94F02A8D3D910511F40C94D3
:10439000FD2A0C94FC2F853AA1E09A0711F40C94A5
:1043A000E22DF4F58F32E1E09E0711F40C94822C9B
:1043B000DCF48C3221E0920711F40C94AA2B3CF42B
:1043C0008232914011F40C949F2B0C94FC2F8D326F
:1043D000B1E09B0711F40C94BF2B8E32914011F485
:1043E0000C943E2C0C94FC2F8A39F1E09F0709F4C1
:1043F00039C44CF48039914011F00C94FC2F0E9488
:1044000096B90C9408308C39A1E09A0711F40C94F9
:10441000852C843A914011F40C948B2C0C94FC2F35
:10442000883FE1E09E0711F40C945E2FECF4843F8A
:1044300021E0920711F40C94582F3CF48C3A9140EF
:1044400011F40C94B32E0C94FC2F853FB1E09B0724
:1044500011F40C945B2F863F914011F00C94FC2FCB
:104460000E9443E80C9408308B35F2E09F0711F46A
:104470000C94762F7CF48C3032E0930711F40C947A
:104480006E2F8835924011F00C94FC2F0E94E8F1B9
:104490000C940830803AB3E09B0709F412C2873EBF
:1044A000934011F40C94EF2F0C94FC2FA090071460
:1044B000B090081480E50E947359882359F00E9437
:1044C000E3F36B017C0111E0672B682B692B31F45E
:1044D00010E004C010E0C12CD12C760183E50E94CD
:1044E0007359882311F40C9494310E943C5920E0B4
:1044F00030E04AE754E40F940B0E0F94AA156B01B9
:104500007C0111110BC0672B682B692B39F4A114A6
:10451000B10421F0D5018C91811102C010E001C0DD
:1045200011E00E9496B9112329F061E0C5010E94B3
:1045300087B405C060E085E995E00E943BB4109126
:104540008F0383E080938F0381E08093CF0DC114AC
:10455000D104E104F104B1F00E940FFBC60ED71E96
:10456000E81EF91E0E940FFBDC01CB018C199D098E
:10457000AE09BF09B7FF0EC08091CF0D81110C9419
:10458000993108C08091CF0D882321F080E00E94EE
:104590008CC9F8CF0E94ADB41092CF0D10938F0349
:1045A0000C94083060E088EA95E00E943BB45F9884
:1045B0008A988091080181708093060112980C946A
:1045C000083080EC95E00E94B0881092120887EDC8
:1045D00091E10E94CD3D8BE1E7EDF1E1DE01119625
:1045E00001900D928A95E1F740E050E0BE016F5FC7
:1045F0007F4F80E090E00E943391CE0101960E94AF
:10460000E74081EB95E00E94B0880C9408300E944E
:104610001A900C9408300E94A98F80919513877F7F
:10462000809395130C940830E0910714F0910814CE
:104630008081882329F0803209F410823196F8CFE6
:1046400040E061E080910714909108140E94D1929B
:104650000C9408308091A4078823E9F080E090E072
:10466000A8E4B2E488A399A3AAA3BBA31C8E1D8EC1
:104670001E8E1F8E19821A821B821C8220E0AE01C0
:10468000405E5F4FBE01645E7F4FCE0101960E9487
:10469000FC890C9408300E940073882321F00E944A
:1046A000BA8F0E94C7B70E94ADB40C9408308091B5
:1046B000951382FF03C08B7F809395130E94F4F2C1
:1046C0000C9408308091951383FD02C00C9408303F
:1046D00083E50E94735981110C949E310C9408302B
:1046E00083E40E942087882319F18BED95E00E94D6
:1046F000B08880918111882391F0BE016F5F7F4F58
:104700008EE791E10E9477408E010F5F1F4FF80105
:1047100081918F01882339F00E9485C9F8CF81EDFE
:1047200095E00E94B0888AE00E9485C90C94083008
:104730008091951382FF21C08AEE95E00E94B08897
:1047400060919113709192138091931390919413AF
:104750004AE00E9406CD8FE20E9485C960918D13C8
:1047600070918E1380918F13909190134AE00E9464
:1047700006CD0E9404CE0C9408308CEF95E00E9488
:10478000B0880C94083040E060E08091071490916C
:1047900008140E94D1920C9408308091951383FDE7
:1047A00002C00C9408300E948EA28091951383FD64
:1047B00002C00C9408306091071470910814CE0167
:1047C0004C960E943BEF8C01009711F40C9408303A
:1047D0006C8D7D8D19821C8222E0AC01CE01019688
:1047E0000E94DC42811102C0F12C14C0CE0101965E
:1047F0000E94A9EE8823C1F361E0CE0101960E94D8
:104800005B40009789F325EEDC012C931C820E940B
:10481000F03AF82ECE0101960E94E740B801FF2041
:1048200089F088E296E00E94A5898AE00E9485C905
:10483000109291131092921310929313109294135A
:104840000C94083080E196E00E94A5898DE096E006
:104850000E94B0880C9408308091951382FD0E94CC
:1048600096B98091951383FD02C00C94083080E5C1
:104870000E94B3A2182F482F61E0809107149091F5
:1048800008140E94D19283E50E947359882381F015
:104890000E940459AB01BC014093911350939213B1
:1048A00060939313709394138EE791E10E94363DC9
:1048B0000E94BA8F11110C9408300E94C7B70C9453
:1048C000083020910714309108149091951392604C
:1048D0009093951340E060E0C9010E94D1920C943E
:1048E00008300E948F4E6C8F7D8F8E8F9F8FBE0100
:1048F0006F5F7F4FCE014C960E94247260E0CE0124
:1049000001960E9487B40E94BC89BE016F5F7F4FF1
:1049100086E396E00E94A5898AE00E9485C90C94EE
:10492000083083E50E947359882311F40C940830F1
:104930000E941459F82E6DE070E080E50E948059C5
:104940008C0197FF02C00C940830E82E89E40E9485
:10495000B3A281110C94AF31802F0F94A704811161
:10496000BFC60C94AF310E944BAA0C9408300E9431
:1049700023B80C94083060E070E083E50E94805911
:104980008E34910531F40E9494B80E94ADB40C9419
:10499000083081EA96E00E94B0886091AE0570917F
:1049A000AF0588E996E00E947A896091B005709120
:1049B000B1058BE896E00E947A896091AE0570910E
:1049C000AF058091B0059091B105681B790B80917E
:1049D000930E815021E030E0823010F020E030E092
:1049E000621B730B80E896E00E947A898AE00E943D
:1049F00085C988E796E00E94B0888091B2059091C1
:104A0000B305A091B405B091B5058C8F9D8FAE8F85
:104A1000BF8FBE016F5F7F4FCE014C960E94247204
:104A2000BE016F5F7F4F8BE696E00E94A589809163
:104A3000B6059091B705A091B805B091B9058C8FD6
:104A40009D8FAE8FBF8FBE016F5F7F4FCE014C96A3
:104A50000E942472BE016F5F7F4F8BE596E00E943B
:104A6000A58920E030E04AE754E46091BA057091EE
:104A7000BB058091BC059091BD050F943115AB012C
:104A8000BC0183E496E00E9487898DE60E9485C977
:104A90008AE00E9485C90C94083080914A0D83FFFA
:104AA00002C00C9408300E94BFF187FF02C00C9432
:104AB000083083E50E947359882379F00E943C599D
:104AC0000F94A3158B01CB010E94D08406351105EC
:104AD00024F40E9423B80E94ADB40F94A6030C9452
:104AE000083080914A0D83FF02C00C9408300E9468
:104AF000BFF1F82E87FF02C00C94083083E50E94B6
:104B00007359082F811106C082E50E947359182F2E
:104B10008823C1F10E943C590F94A315CB010E9438
:104B2000D0840E943C5920E030E04AEA52E40F94DD
:104B3000A50D181614F40C94C8310E9423B80E94D5
:104B4000ADB46091790870917A08072E000C880B3B
:104B5000990B0F94AC0D4B015C014090750850907F
:104B600076086090770870907808A30192010F94FE
:104B70007016181614F40C94DB31002311F40C9405
:104B8000CC3111E00F94A603112311F40C940830DA
:104B900040E0602F8F2D0E942E800C9408308EE410
:104BA0000E947359882311F40C9408300E94045910
:104BB00060933D0570933E0580933F0590934005BB
:104BC0000C94083083E50E942087882329F083E530
:104BD0000E94D7CE80934A0D0E94BC8981ED96E059
:104BE0000E94B08880914A0D882369F107ECE02E7D
:104BF00006E0F02E00E010E020E080914A0D90E009
:104C0000A0E0B0E0002E04C0B695A79597958795D3
:104C10000A94D2F780FF0EC0DD24D394D20E222353
:104C200019F08CE20E9485C9F701859194910E9448
:104C3000B0882D2D0F5F1F4FB2E0EB0EF11C053039
:104C40001105D9F670CD83EC96E06BCD1092CF0DA7
:104C500010921A020C94083080E090E00E944A8D75
:104C60000C9408300E943FC80C94083083E50E94E1
:104C70007359882381F00E941459282F30E02D3376
:104C8000310524F4809300020C9408308CE3809367
:104C900000020C9408300E94BC894091000250E050
:104CA00060E070E088ED96E00E9469898AE00E94E9
:104CB00085C90C94083080914A0D83FF02C00C9482
:104CC000083083E50E947359882311F40C9408304E
:104CD0000E943C590F94A315CB010E94D8570C9405
:104CE000083080914A0D83FF02C00C94083083E5A0
:104CF0000E947359182F81110C94DE3182E50E94B5
:104D0000735981110C94DE310C9408300E94BFF16C
:104D1000182F87FD0AC08DEF96E00E94B088812F82
:104D20000E942F7E8AE00E9485C9E8A9E0938F0344
:104D30000C94753383E50E947359882311F40C9405
:104D400008300E941459182F90E0CD970CF01CE306
:104D500010938A030E940FFB6B017C01212F30E02E
:104D6000A8EEB3E00F944F14C60ED71EE81EF91E2E
:104D7000C0928603D0928703E0928803F092890361
:104D80000C94083080E50E94D7CE182F823010F0A6
:104D90000C94083081E40E942087882321F06091E0
:104DA0005E0870E002C06FEF70E083E50E94D0F310
:104DB000212F30E08F3F910519F010F08FEF90E038
:104DC000F901E25AF74F8083F901ED53F14F8083E7
:104DD0000C94083080E50E94D7CE823010F00C94FD
:104DE000083090E0FC01E25AF74F1082FC01ED53CD
:104DF000F14F10820C9408300E94E1840E9423B885
:104E00000E94EEBA0E94EAC868EE73E080E090E08B
:104E10000E948C8860E080E097E00E943BB40C9494
:104E20000830209399030C94083083E50E9473594D
:104E30008823A1F00E943C5920E030E04AE754E486
:104E40000F940B0E0F94AA15609301027093020247
:104E500080930302909304020C94083088E50E942A
:104E6000208781110C94143289E50E9420878111DA
:104E70000C9414328AE50E94208781110C9414321C
:104E800085E40E94208781110C9414320E94EEBAAE
:104E90000C94083083E50E942087882311F40C9439
:104EA00008300E943C5920E030E04AE754E40F9477
:104EB0000B0E0F94AA1560938B0370938C03809351
:104EC0008D0390938E030C9408300E94BFF187FFEE
:104ED00002C00C9408308091031484FD04C08091BA
:104EE000051487FF0AC0B1E7CB2EB2E0DB2E1BE42E
:104EF000E12E1DE0F12E10E03BC08091061483707E
:104F000091F70E94BC8940915F0D5091600D6091B6
:104F1000610D7091620D8AE197E00E94878940914E
:104F2000630D5091640D6091650D7091660D87E180
:104F300097E00E9487894091670D5091680D6091BC
:104F4000690D70916A0D84E197E00E948789409114
:104F50006B0D50916C0D60916D0D70916E0D81E136
:104F600097E00E9487898AE00E9485C90C940830E6
:104F7000D6018D916D010E947359882309F46DC08B
:104F8000133009F063C00E943C594B015C0120E0E2
:104F900030E040EA51E40F94A50D87FF4EC0A50113
:104FA000940160916B0D70916C0D80916D0D9091DD
:104FB0006E0D0F9431152B013C019B01AC016091EA
:104FC00042087091430880914408909145080F94DD
:104FD0000B0E6093420870934308809344089093AB
:104FE0004508A301920160917B0D70917C0D809129
:104FF0007D0D90917E0D0F940B0E60937B0D709341
:105000007C0D80937D0D90937E0D60915208709180
:10501000530880915408909155080F94AA0DA3014C
:1050200092010F940B0E0F94AA156093520870937F
:105030005308809354089093550880926B0D90927A
:105040006C0DA0926D0DB0926E0D07C00E943C5980
:10505000F701648B758B868B978B1F5FF4E0EF0EE7
:10506000F11C143009F084CF0E9472B9D1C785E4D5
:1050700098E00E94B08860E085E398E00E94E2FC3E
:1050800060E080E298E00E94E2FC61E089E198E063
:105090000E94E2FC61E08EE098E00E94E2FC61E0A8
:1050A0008EEF97E00E94E2FC60E085EF97E00E94BF
:1050B000E2FC61E08BEE97E00E94E2FC60E081EEB2
:1050C00097E00E94E2FC60E089ED97E00E94E2FC3C
:1050D00061E08BEC97E00E94E2FC60E08DEB97E0F2
:1050E0000E94E2FC60E08EEA97E00E94E2FC60E051
:1050F00080EA97E00E94E2FC60E08AE897E00E9484
:10510000E2FC60E089E797E00E94E2FC60E08AE66A
:1051100097E00E94E2FC60E085E597E00E94E2FCF7
:1051200061E082E497E00E94E2FC60E085E397E0C2
:105130000E94E2FC60E081E297E00E94E2FC68C726
:105140008091071490910814009709F4ACCADC010F
:105150002C91222309F4A7CA60E00E9487B458C7A3
:10516000009107141091081483E0F12C40E0815065
:10517000E1F0F8019081292F2B7F2134C1F72181A3
:105180002133A9F7913421F0953421F441E002C094
:10519000FF24F39498012E5F3F4F89012F5F3F4F0B
:1051A000D8019C919032C9F3E2CF41110E94BC8991
:1051B000FF2021F083E199E00E94B088C8010E949D
:1051C0000ACE26C70E9403E823C71092BF0510929B
:1051D000BE050E942DE81CC760E070E083E50E94D8
:1051E00080598C011127023011053CF00E94B889CA
:1051F00087E199E00E94B0880BC788E40E94735948
:105200008823A1F00E9438598A3A910534F08B3FE7
:1052100091052CF08AEF90E002C08AEA90E0F80154
:10522000EE0FFF1FEB5AF04F9183808386E40E94BC
:105230007359882381F00E94385997FD07C08F3F2A
:10524000910529F024F08FEF90E001C080E0F80193
:10525000E15BF04F808382E40E947359882309F454
:10526000D7C60E9438598530910534F08F369105A4
:105270002CF08EE690E002C085E090E0F801EE0FA1
:10528000FF1FEF5AF04F91838083C2C60E94BFF187
:10529000182F87FDBDC684E40E942087882309F467
:1052A0003FC00E943C596B017C0101E020E030E0EE
:1052B000A9010F94A50D811101C000E000937E0E9D
:1052C00020E030E0A901C701B6010F94A50D8823A5
:1052D00039F10E943C59B4E01B02F0011124ED5752
:1052E000F14F608371838283938320E030E0A901D2
:1052F0006091830E7091840E8091850E9091860E40
:105300000F94A50D81110CC080E090E0A0EEBFE3EA
:105310008093830E9093840EA093850EB093860E97
:105320000E9428B575C60E94BFF187FD71C661E76E
:10533000E62E62E0F62E0BE41DE0F70181917F017D
:105340000E942087882351F00E943C590F94AA158F
:10535000D8016D937D938D939C9313970C5F1F4F92
:10536000BDE00B351B0749F70E942BB951C60E94BF
:10537000BFF187FD4DC651E7E52E52E0F52E0BE457
:105380001DE0F70181917F010E942087882349F069
:105390000E943C59D80194966D937D938D939C9374
:1053A00097970C5F1F4FBDE00B351B0751F730C6B9
:1053B0008091041487FF02C00C944432809105143C
:1053C0008E7011F00C94443240917F0D5091800DFD
:1053D0006091810D7091820D8FE399E00E94878921
:1053E0004091830D5091840D6091850D7091860DD3
:1053F0008CE399E00E9487894091870D5091880D38
:105400006091890D70918A0D89E399E00E948789E6
:105410008AE00E9485C9FCC580910314827111F055
:105420000C948A32809105148C7811F00C948A3295
:1054300080910614837011F00C948A32E9C51F5FC5
:10544000B4E0EB0EF11C133011F40C940920F601BA
:1054500081916F010E942087882389F30E943C5923
:10546000D7016D937D938D939C931397812F0E9409
:105470008CBDE5CF0E94BC8988EA99E00E94B08883
:1054800083E50E942087882321F00E942859809379
:10549000620280916202882319F085E899E002C0D7
:1054A00081E899E00E94B08880EA99E00E94B08883
:1054B0002091F20D3091F30D4091F40D5091F50DC6
:1054C00060914A0270914B0280914C0290914D0282
:1054D0000F94A914AB01BC018EE999E00E94878961
:1054E0002091F60D3091F70D4091F80D5091F90D86
:1054F0006091520270915302809154029091550232
:105500000F94A914AB01BC018BE999E00E94878933
:105510002091FA0D3091FB0D4091FC0D5091FD0D45
:1055200060915A0270915B0280915C0290915D02E1
:105530000F94A914AB01BC0188E999E00E94878906
:1055400080E999E00E94B0882091F20D3091F30D2E
:105550004091F40D5091F50D60914E0270914F0203
:1055600080915002909151020F94A914AB01BC019B
:105570008EE899E00E9487892091F60D3091F70D11
:105580004091F80D5091F90D6091560270915702BB
:1055900080915802909159020F94A914AB01BC015B
:1055A0008BE899E00E9487892091FA0D3091FB0DDC
:1055B0004091FC0D5091FD0D60915E0270915F0273
:1055C00080916002909161020F94A914AB01BC011B
:1055D00088E899E00E9487898AE00E9485C918C5F9
:1055E00083E50E947359882309F412C50E94385933
:1055F00090936802809367020BC50E94BFF1F82E5A
:1056000087FD06C583E50E9473590F2D0F2C000CF2
:10561000110B882369F10E943859F801EE0FFF1F22
:10562000E75CFD4F91838083000F111F000F111F56
:10563000F801E15DFD4F7F01BC01990F880B990BCB
:105640000F94AC0D2AE037ED43E25CE30F940B0EB0
:10565000F801E158F14F20813181428153810F944B
:105660000B0ED7016D937D938D939C931397D0C4AC
:105670000E94BC8985E40E9485C980E38F0D0E9449
:1056800085C9F801EE0FFF1FE75CFD4F6081718156
:1056900088EB99E00E94988985E20E9485C98AE09A
:1056A0000E9485C9B5C480E50E942087882309F43B
:1056B000AFC460E070E080E50E948059F82E6FEF83
:1056C0007FEF83E50E9480598C010196039708F0D3
:1056D0009FC4F7FC9DC48F2D0F94A704882339F035
:1056E0000E94B88980EC99E00E94B08891C40E9421
:1056F00096B960E08F2D0E94D0F90F3FBFEF1B07D6
:1057000031F00130110571F000E010E00DC08F2D77
:105710000E943ED531E020E0892B09F030E0032FD4
:10572000122F02C001E010E08F2D0E943ED580179D
:10573000910709F46DC480E00E948CC9F5CF8AE519
:105740000E94735981115DC783E50E9473598111CD
:1057500058C75EC464E071E083E50E94D0F38C0119
:1057600068EE73E080E50E94D0F38938E3E19E079C
:1057700010F088E893E1B8010E940EB449C485E4B2
:105780000E94D7CE811173C080E50E9420878823B4
:1057900051F00E943C5960937C0870937D0880937F
:1057A0007E0890937F0889E40E942087882381F0F7
:1057B0000E943C592CEA35EC47E25EE30F940B0E55
:1057C0006093800870938108809382089093830887
:1057D00084E40E942087882381F00E943C592CEAAF
:1057E00035EC47E25EE30F943115609384087093C3
:1057F000850880938608909387080E94BC89409111
:105800007C0850917D0860917E0870917F0889EE38
:1058100099E00E9487892CEA35EC47E25EE36091CB
:1058200080087091810880918208909183080F947C
:105830003115AB01BC0185EE99E00E9487892CEA05
:1058400035EC47E25EE360918408709185088091B1
:105850008608909187080F940B0EAB01BC0181EE76
:1058600099E00E9487898AE00E9485C9D1C30E947D
:10587000B8898FEC99E00E94B088CAC383E50E9482
:105880002087182F882371F00E943C590F94A3158C
:10589000709334026093330221E0672B09F020E01B
:1058A0002093700880E50E942087882359F020917A
:1058B000330230913402232B11F00E942859809337
:1058C0007008A6C31111A4C30E94BC8989E09AE0A4
:1058D0000E94B08880917008882319F081EF99E0C8
:1058E00002C08DEE99E00E94B08860913302709101
:1058F000340288EF99E00E94988984EF99E00E9431
:10590000B08886C30E94286E83C380910514867078
:1059100009F0BEC6D4C683E50E942087882349F0DB
:105920000E942859182F811106C080E00E947987B3
:1059300002C01091350880911F0290912002A09121
:105940002102B091220289839A83AB83BC83809128
:10595000230290912402A0912502B09126028D830A
:105960009E83AF83B8878091270290912802A091EF
:105970002902B0912A0289879A87AB87BC8786E57E
:105980000E942087682E0E945F88882309F4AFC098
:1059900083E40E942087882309F4B4C00E943C5904
:1059A0001B012C01912CA12C68ECB62E72ECC72E99
:1059B000712C812CF8ECFCA722E42DA735E03CA348
:1059C0008CA181508CA38F3F09F43EC095E098A72D
:1059D000B5E0B89FD0011124BFA7AEA7B8A5B150BC
:1059E000B8A7BF3F69F3EEA5FFA5EB0FF11DEE0FC2
:1059F000FF1FEE0FFF1FE65EF14FD080E180F280C7
:105A00000381272D382D4CA55DA56D2D7E2D8F2D65
:105A1000902F0F94A50D87FF04C07D2C8E2CFCA623
:105A20000DA7292D3A2D4B2D5C2D6D2D7E2D8F2D03
:105A3000902F0F94701618161CF0D92C75010C2D90
:105A40009D2C5701C02ECACF292D3A2D4B2D5C2DF0
:105A5000672D782D8CA59DA50F94A91420E030E02A
:105A600040E05FE30F940B0EA20191010F94A91483
:105A70001B012C012DEB37E346E855EB0F94701614
:105A800087FD0AC02DEB37E346E855E3C201B101BB
:105A90000F94A50D1816B4F580E00E94798735E0C3
:105AA000B32E45E0A42EBA943FEFB31659F105E0AA
:105AB000AB9C600111240150B0F37601E00EF11CA3
:105AC000C701880F991F880F991FDC01A65EB14F8F
:105AD0007D01A20191016D917D918D919C910F9419
