:100000000C94ED1E0C941E1F0C941E1F0C941E1FAE
:100010000C941E1F0C941E1F0C941E1F0C941E1F6C
:100020000C941E1F0C941E1F0C941E1F0C941E1F5C
:100030000C941E1F0C94858F0C941E1F0C941E1F75
:100040000C941E1F0C94A2660C941E1F0C941E1F71
:100050000C941E1F0C941E1F0C9474840C943BFC77
:100060000C941E1F0C9455CF0C944BCF0C941E1F58
:100070000C941E1F0C941E1F0C941E1F0C941E1F0C
:100080000C941E1F0C941E1F0C941E1F0C941E1FFC
:100090000C941E1F0C941E1F0C941E1F0C941E1FEC
:1000A0000C941E1F0C941E1F0C941E1F0C941E1FDC
:1000B0000C941E1F0C941E1F0C941E1F0C941E1FCC
:1000C0000C941E1F0C941E1F0C941E1F0C941E1FBC
:1000D0000C941E1F0C941E1F0C941E1F0C941E1FAC
:1000E0000C941E1FA4EC7DEC80ECA7EC83EC86EC5A
:1000F00089EC95EC8CECA2EC8FEC92EC86FA89FA08
:1001000078FA7CFA82FAC0FA8DFA91FA97FA9BFA99
:100110009FFAA5FAA9FAADFAC0FAB3FAB7FABBFA90
:1001200055FB5AFB5FFB69FB73FBECFB7DFB85FB1F
:100130008DFB97FBA1FBABFBBAFBC4FBECFBCEFB3F
:10014000D8FBE2FB05A84CCDB2D44EB93836A90293
:100150000C50B9918688083CA6AAAA2ABE000000C5
:10016000803F0C94A1FB0C945CA40C94EBC20C9407
:100170007EDE0C949FFA0C9486EC0C9492A40C9462
:10018000427D0D943B080C94F0C20C94A5FA0C949B
:1001900094AA0C945FFB0C9492BF0C9455FB0C94A6
:1001A000C0A40C9478FA0C9481A50C94FA340C94A5
:1001B0003FA60C9408390C9488AA0C945DA50C9465
:1001C000FA4F0C948FEC0C94EFEA0C9488A50C94E5
:1001D00048B60C94A2EC0C94288F0C94D8FB0C9489
:1001E000F1380C94D7EA0C94B17B0C9402350C9442
:1001F000ADFA0C94CBA40C94D6BE0C946AAA0C94C1
:1002000039D90C9497FB0C94E7EA0C946C380C9455
:100210009FA40C94F5C20C9469FB0C94BBFA0C944B
:10022000A8550C94DFEA0C94CCBE0C9433A90C9422
:10023000CFEA0C9484A40C945AFB0C94ACAA0C94B2
:10024000997A0C94F7EA0C944D380C94BDA40C9454
:1002500091FA0C94ECFB0C94F6A30C9400520C94C1
:1002600011370C949AAA0C9434A40C9476AA0C948A
:10027000D1BE0C94A0AA0C94CEFB0C94FE7D0C94E1
:10028000A9FA0C94ABFB0C94E0A30D94AC040C9471
:10029000D9C20C947CAA0C94E34F0C9485FB0C946B
:1002A000A97A0C948DFB0C941FC30C948CEC0C94C9
:1002B00097FA0C94C7EA0C9492EC0C9464C10C94D9
:1002C000BA770C94A4EC0C943CDF0C94FAA80C9430
:1002D000AAEC0C945FF70C9465C50C9435A60C94AD
:1002E0007AA50C94E2FB0C9439DF0C94DD770C9426
:1002F000B7FA0C9459F70C94FFEA0C9400E10C94B3
:100300007E370C94A6AA0C9495EC0C946CA60C94D5
:1003100095BF0C94FAC20C94E8A40C9470A40C94AD
:10032000BFEA0C9482FA0C9483EC0C9489EC0C9444
:1003300086FA0C9422A50C947DFB0C94BD8E0C9433
:1003400020A40C9405A50C9467C50C940CA40C94E3
:10035000E78E0C9480EC0C94E1C20C947DEC0C9430
:100360009FC30C943FDF0C94E6C20C9434900C9421
:10037000B3FA0C9495B50C9425C30C9407EB0C942C
:10038000F48E0C943DC10C947CFA0C9421370C949F
:10039000BAA40C949BFA0C9431C30C9411500C9495
:1003A00070AA0C94A0EA0C940CE10C94A7EC0C94A9
:1003B00048A40C948EAA0C94AE340C94C4FB0C94F8
:1003C00019C30C940C8F0C9436370C94FFC20C9408
:1003D000F88E0C9473FB0C94C0FA0C943AF70C94BE
:1003E000F58E0C9489FA0C9435380C948DFA0C9493
:1003F00082AA0C943FA50C94A1C30C946FC00C94DA
:100400002BC30C94DB340C94BAFB0C9498F80C942A
:10041000ACA44E414E494E495459494E46CDCCCCE0
:100420003D0AD7233C17B7D13877CC2B329595E6C8
:10043000241FB14F0A000020410000C84200401CA8
:100440004620BCBE4CCA1B0E5AAEC59D7400407AF5
:1004500010F35A00A0724E18090010A5D4E800004D
:10046000E87648170000E40B54020000CA9A3B00EB
:100470000000E1F505000080969800000040420F62
:10048000000000A08601000000102700000000E826
:1004900003000000006400000000000A00000000EB
:1004A000000100000000002C76D888DC674F08238C
:1004B000DFC1DFAE59E1B1B796E5E3E453C63AE6F2
:1004C00051997696E8E6C28426EB898C9B62ED40D2
:1004D0007C6FFCEFBC9C9F40F2BAA56FA5F4900521
:1004E0005A2AF75C936B6CF9676DC11BFCE0E40D55
:1004F00047FEF520E6B500D0ED902E030094357749
:10050000050080841E080000204E0A000000C80C70
:10051000333333330F986E12831141EF8D211489D9
:100520003BE65516CFFEE6DB18D1844B381BF77C33
:100530001D901DA4BBE424203284725E228100C978
:10054000F124ECA1E53D27434F4D4D554E49434124
:1005500054494F4E0044525952554E004552524F45
:10056000525300494E464F004543484F0057617271
:1005700074656E2E2E2E004D65736820706F696E47
:10058000742063616E6E6F74206265207265736F94
:100590006C7665640A004B6C69636B207A756D201C
:1005A000466F72747365747A656E004D6F746F7206
:1005B000656E20616E6765736368616C7465740055
:1005C000456E642066696C65206C6973740A00422C
:1005D0006567696E2066696C65206C6973740A00D2
:1005E000286E6F2066696C65290043757272656EAE
:1005F000742066696C653A20005344207072696EFD
:1006000074696E67206279746520004E6F742053A0
:1006100044207072696E74696E670A002E0A004485
:10062000656C6574696F6E206661696C65642C2009
:1006300046696C653A200046696C652064656C65A6
:100640007465643A005072696E742074696D653A1D
:1006500020000A53746174733A2046696C616D65B9
:100660006E7420757365643A20002C204C6F6E67A1
:10067000657374206A6F623A2000546F74616C2055
:1006800074696D653A200053746174733A20002CCC
:10069000204661696C65643A20002C2046696E69C9
:1006A000736865643A20005072696E74733A200072
:1006B00053746174733A20004520457874722E207B
:1006C0006BC3BC686C742E2E2E0045204578747266
:1006D0002E206865697A742E2E2E006F666600687B
:1006E0000563055C055505470544454255473A00F5
:1006F0004D31313320530042657474206BC3BC68A4
:100700006C742E2E2E0042657474206865697A74AC
:100710002E2E2E006F6B004A474175726F7261205A
:100720004135204F46462E00204500205A002059D2
:1007300000204D39322058004348414D4245525F18
:1007400054454D5045524154555245004D4F544922
:100750004F4E5F4D4F44455300544845524D414C18
:100760005F50524F54454354494F4E004155544FEA
:100770005245504F52545F53445F53544154555364
:100780000050524F4D50545F535550504F525400EB
:10079000454D455247454E43595F5041525345528E
:1007A00000434153455F4C494748545F42524947D3
:1007B00048544E45535300544F47474C455F4C49AE
:1007C0004748545300534F4654574152455F504F8A
:1007D000574552004255494C445F50455243454E9F
:1007E00054004C4556454C494E475F4441544100E6
:1007F0005A5F50524F4245004155544F4C45564563
:100800004C005052494E545F4A4F420050524F479D
:1008100052455353004155544F5245504F52545F27
:1008200054454D5000564F4C554D45545249430088
:10083000454550524F4D0042494E4152595F46493D
:100840004C455F5452414E53464552005345524920
:10085000414C5F584F4E5F584F4646004649524DF7
:10086000574152455F4E414D453A4D61726C696E3C
:10087000206275676669782D322E302E78202847E1
:1008800069746875622920534F555243455F434F41
:1008900044455F55524C3A68747470733A2F2F6711
:1008A00069746875622E636F6D2F4D61726C696E2D
:1008B0004669726D776172652F4D61726C696E2049
:1008C00050524F544F434F4C5F56455253494F4E31
:1008D0003A312E30204D414348494E455F545950DE
:1008E000453A4A474175726F72612041352045583B
:1008F0005452554445525F434F554E543A3120555A
:100900005549443A63656465326132662D3431611C
:10091000322D343734382D396231322D6335356319
:1009200036326633363766660A002F2F20004D3187
:10093000343520533C696E6465783E206F757420B1
:100940006F662072616E67652028302D31290A009C
:10095000205400205200416363656C6572617469C4
:100960006F6E3A2050005741524E494E4721204C5D
:100970006F77205A204A65726B206D6179206C6513
:10098000616420746F20756E77616E746564207089
:1009900061757365732E0A004F4646004F4E002066
:1009A0005A00205900580020204D61783A2000203C
:1009B0005A00205900580020204D696E3A200053FB
:1009C0006F667420656E6473746F70733A200020D4
:1009D000466C6F773A200050726F7465637465647B
:1009E0002050696E0A00496E76616C6964206578F2
:1009F0007472756465720A0020643A0020693A00D6
:100A000020703A0064697300656E0043290A006132
:100A1000626C656420286D696E2074656D702000BD
:100A2000436F6C64206578747275646573206172BD
:100A300065200046696C616D656E742072756E6F1D
:100A4000757420004F46460A00466164652048657B
:100A5000696768742000426564204C6576656C693E
:100A60006E6720004661696C656420746F20656E56
:100A700061626C6520426564204C6576656C696EC8
:100A8000670A004D65736820426564204C65766591
:100A90006C20646174613A0A00496E76616C696425
:100AA000206D6573682E0A004D65736820706F694C
:100AB0006E742063616E6E6F742062652072657360
:100AC0006F6C7665640A004D34323120696E636F55
:100AD000727265637420706172616D6574657220F5
:100AE00075736167650A00486F6D6576657273613D
:100AF000747A20616B746976004572723A20546F83
:100B00006F206661722100546F6F206661722066EB
:100B1000726F6D207265666572656E636520706FB9
:100B2000696E740A00454550524F4D204F4B0A00E4
:100B30004D343238005765726B7365696E73746536
:100B40006C6C756E67656E0046696C616D656E7480
:100B50000054656D706572617475720053746570D0
:100B6000732F6D6D004A65726B0042657363686C2C
:100B700065756E6967756E67004765736368776949
:100B80006E6469676B656974005365747A652048A3
:100B90006F6D657665727361747A004B6F6E66690E
:100BA0006775726174696F6E003F004EC3A463681D
:100BB0007374652045636B650046657274696700F0
:100BC00057656974657200473238004E6976656C06
:100BD0006C696572656E2066657274696721004292
:100BE0006577656765205A00473239205332004ED9
:100BF000C3A46368737465204B6F6F7264696E6120
:100C00007465002569202F2025750047323920534F
:100C10003100473239205332004B6C69636B207AC4
:100C2000756D205374617274656E00473238004BE5
:100C30006F6E6669672E2073706569636865726E92
:100C4000004B6F6E6669672E206C6164656E0045AF
:100C5000636B656E206E6976656C6C696572656E36
:100C60000042657474205A0042657474205A004131
:100C70007573626C656E6468C3B6686500417573B0
:100C8000626C656E6468C3B6686500617573006107
:100C90006E00426574742D4E6976656C6C69657280
:100CA000756E670042657474206E6976656C6C6958
:100CB0006572656E004265776567756E67004B6F9C
:100CC0006E6669672E2073706569636865726E0071
:100CD0004265747400426574740044C3BC7365005B
:100CE00044C3BC7365004CC3BC66746572004CC3DE
:100CF000BC66746572004B6F6E666967757261746D
:100D0000696F6E007C3C3E5E2B3D3F2F5B5D3B2C54
:100D10002A225C0000809843008098430000A04392
:100D20000000A0C00000000000000000290A002010
:100D300062797465733B2063726320005365747439
:100D4000696E67732053746F72656420280045458F
:100D500050524F4D206461746173697A65206572E9
:100D6000726F722E0A00290A002062797465733B43
:100D70002063726320002073746F72656420736552
:100D80007474696E677320726574726965766564E0
:100D9000202800202863616C63756C617465642988
:100DA000210A0020213D2000454550524F4D20434F
:100DB0005243206D69736D61746368202D20287320
:100DC000746F7265642920002053697A653A2000A7
:100DD000496E6465783A2000204D61726C696E3D01
:100DE000563638290A00454550524F4D20766572D7
:100DF00073696F6E206D69736D6174636820284537
:100E00004550524F4D3D00486F6D652058595A006E
:100E10004C6164656E206D6D004C6164656E206D83
:100E20006D00456E746C6164656E206D6D00456E7D
:100E3000746C6164656E206D6D0046696C616D65F2
:100E40006E7464757263686D65737365720046696C
:100E50006C616D656E7464757263686D65737365DE
:100E6000720061757300616E004520696E206D6DC2
:100E7000C2B3004572772E2045696E7374656C6C41
:100E8000756E67656E004D33303320553120452532
:100E9000692053256900504944204175746F747569
:100EA0006E6500504944204175746F74756E65001D
:100EB00050494420440050494420440050494420B3
:100EC00049005049442049005049442050005049AD
:100ED00044205000022046616B746F72000220466D
:100EE000616B746F720002206D61780002206D6189
:100EF000780002206D696E0002206D696E006175D8
:100F00007300616E004175746F2054656D70657279
:100F100061747572004572772E2045696E73746531
:100F20006C6C756E67656E0047323620486561747B
:100F3000696E67204E6F7A7A6C652E0047323620D4
:100F400048656174696E67204265642E0057616967
:100F500074696E6720666F72206865617475702EA3
:100F60000A00446F6E65205072696D696E670055A6
:100F70007365722D436F6E74726F6C6C6564205074
:100F800072696D65004669786564204C656E6774AA
:100F900068205072696D652E004D6573682056613A
:100FA0006C69646174696F6E2053746F70706564EE
:100FB0002E004C656176696E6720473236003F53DC
:100FC000706563696669656420582C5920636F6F8A
:100FD0007264696E617465206F7574206F6620623B
:100FE0006F756E64732E0A003F2852296570656123
:100FF000742076616C7565206E6F7420706C6175FD
:101000007369626C653B206D757374206265206145
:1010100074206C6561737420312E0A003F53706533
:10102000636966696564206E6F7A7A6C65207465A1
:101030006D7065726174757265206E6F7420706C6E
:1010400061757369626C652E0A003F537065636950
:10105000666965642066696C616D656E742073698C
:101060007A65206E6F7420706C61757369626C654F
:101070002E0A003F5370656369666965642070726B
:10108000696D65206C656E677468206E6F74207082
:101090006C61757369626C652E0A003F53706563FD
:1010A0006966696564206E6F7A7A6C652073697A07
:1010B00065206E6F7420706C61757369626C652E4B
:1010C0000A003F52657472616374696F6E204D75DA
:1010D0006C7469706C696572206D757374206265DB
:1010E000207370656369666965642E0A003F5370FA
:1010F00065636966696564205265747261637469C9
:101100006F6E204D756C7469706C696572206E6FBE
:101110007420706C61757369626C652E0A003F53B0
:101120007065636966696564206C617965722068C1
:101130006569676874206E6F7420706C617573697F
:10114000626C652E0A0043292E0A003F53706563C6
:101150006966696564206265642074656D70657296
:101160006174757265206E6F7420706C617573693F
:10117000626C65202834302D00473236207374614C
:101180007274696E672E2E2E0A0024F4D43050C378
:101190008E20C2A24017828B7011127A910D816C41
:1011A000D90AA861E108C7586607615143061E4B7A
:1011B0005D05C145A7041A411104093D9803713921
:1011C00031034036DB0265339102D4305402802E65
:1011D0001D02632CEE01752AC501B028A00110275D
:1011E00081018F2564012B244B01E0223401AC21C5
:1011F0001F018D200D01801FFC00841EED00971D36
:10120000DF00B81CD200E61BC600201BBC00641A1D
:10121000B200B219A8000A19A0006A189900D117E3
:10122000910040178B00B516840031167E00B3156F
:1012300079003A157300C7146F0058146A00EE1352
:1012400066008813630025135E00C7125B006C12F2
:10125000570015125400C111510070114F00211197
:101260004B00D61049008D10470046104400021074
:101270004200C00F4000800F3E00420F3C00060FAE
:101280003B00CB0E3800930E37005C0E3500270E66
:101290003400F30D3200C10D3100900D3000600DAF
:1012A0002E00320D2D00050D2C00D90C2B00AE0C9C
:1012B0002900850C29005C0C2700350C27000E0C3A
:1012C0002600E80B2400C40B2400A00B23007D0B98
:1012D00023005A0B2100390B2100180B2000F80ABB
:1012E0001F00D90A1E00BB0A1E009D0A1D00800AAD
:1012F0001D00630A1C00470A1B002C0A1B00110A70
:101300001A00F7091A00DD091900C4091900AB0910
:101310001900920917007B091800630917004C098E
:10132000160036091600200916000A091500F508EE
:101330001500E0081400CC081400B8081400A40834
:101340001400900813007D0812006B081300580861
:101350001200460812003408110023081100120878
:10136000110001081100F0071000E0071000D0077D
:101370001000C0071000B0070F00A1071000910770
:101380000E0083070F0074070F0065070E00570754
:101390000E0049070E003B070D002E070E00200728
:1013A0000D0013070D0006070D00F9060C00ED06F1
:1013B0000D00E0060C00D4060C00C8060C00BC06AC
:1013C0000C00B0060C00A4060B0099060C008D065C
:1013D0000B0082060B0077060B006C060B00610603
:1013E0000A0057060B004C060A0042060A0038069F
:1013F0000A002E060A0024060A001A060A00100631
:10140000090007060A00FD050900F4050900EB05BF
:101410000900E2050900D9050900D0050900C70542
:101420000900BE050900B5050800AD050800A505C1
:1014300009009C050800940508008C050800840537
:1014400008007C050800740508006C0507006505A8
:1014500008005D050700560508004E050700470512
:1014600007004005080038050700310507002A0578
:101470000700230507001C050600160507000F05D9
:1014800007000805060002050700FB040600F50436
:101490000700EE040600E8040600E2040700DB048F
:1014A0000600D5040600CF040600C9040600C304E4
:1014B0000600BD040600B7040600B1040500AC0434
:1014C0000600A6040600A00405009B04060095047F
:1014D0000500900406008A040500850405008004C8
:1014E00006007A04050075040500700405006B040D
:1014F000050066040500610405005C04050057044E
:101500000500520405004D0405004804050043048D
:1015100005003E0404003A040500350405003004CB
:1015200004002C04050027040400230405001E0405
:1015300004001A04040016040500110404000D043C
:101540000400090405000404040000040400FC0372
:101550000400F8030400F4030400F0030400EC03A7
:101560000400E8030400E4030400E0030400DC03D7
:101570000400D8030400D4030400D0030400CC0307
:101580000400C8030300C503030024F404D9201B8E
:10159000C40C5C0E9804C4095F0265077101F40570
:1015A000F900FB04B30048048700C1036900580335
:1015B000550003034500BE023A0084023100530285
:1015C0002A002902250004022000E4011C00C801B1
:1015D0001900AF0117009801140084011300710174
:1015E00010006101100051010E0043010D00360191
:1015F0000B002B010B0020010B00150109000C0151
:10160000090003010800FB000800F3000800EB00DC
:101610000700E4000600DE000600D8000600D20045
:101620000600CC000500C7000500C2000500BD0093
:101630000400B9000400B5000400B1000400AD00CE
:101640000400A9000400A5000300A20003009F00FD
:1016500004009B0003009800030095000200930023
:101660000300900003008D0002008B00030088003F
:1016700002008600020084000300810002007F0057
:1016800002007D0002007B0002007900020077006A
:101690000100760002007400020072000100710077
:1016A00002006F0002006D0001006C0002006A0081
:1016B000010069000200670001006600010065008A
:1016C000010064000200620001006100010060008E
:1016D00001005F0002005D0001005C0001005B0092
:1016E00001005A0001005900010058000100570094
:1016F0000100560001005500010054000100530094
:101700000000530001005200010051000100500090
:1017100001004F0001004E0000004E0001004D008E
:1017200001004C0001004B0000004B0001004A008A
:101730000100490001004800000048000100470086
:101740000100460000004600010045000000450081
:10175000010044000100430000004300010042007A
:101760000000420001004100000041000100400073
:1017700001003F0000003F0001003E0000003E006D
:1017800001003D0000003D0001003C0000003C0065
:1017900000003C0001003B0000003B0001003A005B
:1017A00000003A0001003900000039000100380053
:1017B000000038000000380001003700000037004A
:1017C0000100360000003600000036000100350040
:1017D0000000350000003500010034000000340036
:1017E000000034000100330000003300000033002B
:1017F0000100320000003200000032000100310020
:101800000000310000003100010030000000300015
:101810000000300001002F0000002F0000002F000A
:1018200000002F0001002E0000002E0000002E00FE
:1018300001002D0000002D0000002D0000002D00F3
:1018400001002C0000002C0000002C0000002C00E7
:1018500001002B0000002B0000002B0000002B00DB
:1018600001002A0000002A0000002A0000002A00CF
:1018700001002900000029000000290000002900C3
:1018800000002900010028000000280000002800B6
:1018900000002800000028000100270000002700A9
:1018A000000027000000270000002700010026009C
:1018B0000000260000002600000026000000260090
:1018C0000100250000002500000025000000250083
:1018D0000000250000002500010024000000240075
:1018E0000000240000002400000024000100230068
:1018F000000023000000230000002300000023005C
:10190000000023000000230001002200000022004C
:10191000000022000000220000002200000022003F
:101920000100210000002100000021000000210032
:101930000000210000002100000021000100200023
:101940000000200000002000000020000000200017
:1019500000002000000020000000200001001F0007
:1019600000001F0000001F0000001F0000001F00FB
:1019700000001F0000001F0001001E0000001E00EC
:1019800000001E0000001E000000043700001E2999
:101990000000511B00005810000010090000CC048A
:1019A00000007802000041010000626564002C2004
:1019B00073797374656D2073746F70706564212022
:1019C0004865617465725F49443A200042657474E9
:1019D000206865697A656E206665686C67652E00AB
:1019E00048656174696E67206661696C6564004270
:1019F00045545402204E49434854204552524549CB
:101A000043485400546865726D616C2052756E6174
:101A1000776179004531204845495A454E20455265
:101A2000464F4C474C4F530048656174696E6720C0
:101A30006661696C65640045312002204E49434867
:101A40005420455252454943485400546865726DCC
:101A5000616C2052756E6177617900220A00656EB3
:101A60007175657565696E672022006F6B00526540
:101A700073656E643A2000414E474548414C5445D9
:101A80004E005072696E7465722073746F70706569
:101A9000642064756520746F206572726F72732E96
:101AA0002046697820746865206572726F722061C3
:101AB0006E6420757365204D39393920746F20723A
:101AC0006573746172742E202854656D706572613F
:101AD000747572652069732072657365742E205366
:101AE0006574206974206166746572207265737410
:101AF000617274696E67290A004E6F2043686563DE
:101B00006B73756D2077697468206C696E65206EE3
:101B1000756D6265722C204C617374204C696E6522
:101B20003A20004E6F20436865636B73756D2077B4
:101B3000697468206C696E65206E756D6265722CC3
:101B4000204C617374204C696E653A2000636865AF
:101B5000636B73756D206D69736D617463682C20A0
:101B60004C617374204C696E653A20004C696E6557
:101B7000204E756D626572206973206E6F74204C03
:101B8000617374204C696E65204E756D6265722BB1
:101B9000312C204C617374204C696E653A20004DE5
:101BA000313130004D313137004D33310053442055
:101BB00072656164206572726F720A00446F6E65AF
:101BC000207072696E74696E672066696C650A00C0
:101BD0002569730025696D202569730025696820D2
:101BE00025696D20256973002569642025696820B1
:101BF00025696D2025697300256979202569642090
:101C00002569682025696D20256973002364656650
:101C1000696E652044454641554C545F004B642035
:101C2000004B6920004B70200050494420417574DE
:101C30006F74756E652066696E69736865642120CE
:101C400050757420746865206C617374204B702C1F
:101C5000204B6920616E64204B6420636F6E737447
:101C6000616E74732066726F6D2062656C6F772091
:101C7000696E746F20436F6E66696775726174690F
:101C80006F6E2E680A00504944204175746F747558
:101C90006E65206661696C6564212074696D656F8D
:101CA00075740A0045312002204E494348542045AE
:101CB0005252454943485400546865726D616C2026
:101CC00052756E61776179004531204845495A4522
:101CD0004E204552464F4C474C4F53004865617467
:101CE000696E67206661696C6564005049442041F3
:101CF00075746F74756E65206661696C656421200A
:101D000054656D706572617475726520746F6F20B3
:101D1000686967680A00204B643A2000204B693AE2
:101D20002000204B703A20000A20436C61737369D5
:101D30006320504944200A002054753A2000204B6B
:101D4000753A2000206D61783A2000206D696E3A66
:101D5000200020643A200020626961733A2000501C
:101D60004944204175746F74756E65207374617297
:101D7000740A00504944204175746F74756E652073
:101D80006661696C6564212054656D70657261746B
:101D900075726520746F6F20686967680A00504922
:101DA00044204175746F74756E65206661696C6559
:101DB00064212042616420657874727564657220C4
:101DC0006E756D6265720A00A10000006900A200D4
:101DD00000006300B00000000900C10000004100E5
:101DE000C20000004100C30000004100C400000028
:101DF0004100C50000004100C60000004145C70089
:101E000000004300C80000004500C9000000450074
:101E1000CD0000004900D10000004E00D5000000B8
:101E20004F00D60000004F00D70000007800DC0013
:101E300000005500DD0000005900E00000006100D6
:101E4000E10000006100E20000006100E30000002A
:101E50006100E40000006100E50000006100E600B0
:101E600000006165E70000006300E8000000650015
:101E7000E90000006500EA0000006500EB000000DA
:101E80006500EC0000006900ED0000006900EE0054
:101E900000006900EF0000006900F10000006E0022
:101EA000F20000006F00F30000006F00F40000007B
:101EB0006F00F50000006F00F60000006F00F800F2
:101EC00000006F00F90000007500FA0000007500C6
:101ED000FB0000007500FC0000007500FD00000024
:101EE0007900FF00000079000401000041000501B5
:101EF00000006100060100004300070100006300CC
:101F00000C01000043000D01000063000E01000001
:101F100044000F0100006400110100006400190179
:101F2000000065001F01000067003001000049004B
:101F3000310100006900410100004C004201000035
:101F40006C00430100004E00440100006E00480197
:101F500000006E005901000072005A010000530099
:101F60005B01000073005F0100007300600100006E
:101F700053006101000073006501000074006F01EF
:101F8000000075007C0100007A007D0100005A000D
:101F90007E0100007A00920100006600E30200006A
:101FA00078008403000027008503000027008603D3
:101FB00000004100870300002E0088030000450058
:101FC0008903000048008A03000049008C030000D8
:101FD0004F008E03000059008F0300004F00900354
:101FE00000006900910300004100920300004200DC
:101FF0009303000054009403000034009503000094
:102000004500960300005A0097030000480098031B
:10201000000030009903000049009A0300004B00C3
:102020009B0300005E009C0300004D009D03000028
:102030004E009E03000033009F0300004F00A003EA
:1020400000006E00A10300005000A3030000450043
:10205000A40300005400A50300005900A6030000DB
:102060007000A70300005800A80300005000A90357
:1020700000004F00AA0300004900AB030000590014
:10208000AC0300006100AD0300006500AE0300007A
:102090006E00AF0300006900B00300007600B103DA
:1020A00000006100B20300004200B30300007600AC
:1020B000B40300006400B50300006500B60300002F
:1020C0005A00B70300006E00B80300003000B903E7
:1020D00000006900BA0300006B00BB0300004C0065
:1020E000BC0300007500BD0300007600BE030000C5
:1020F0006500BF0300006F00C00300006E00C10355
:1021000000007000C20300006300C30300006F0002
:10211000C40300007400C50300007600C60300007D
:102120007000C70300005800C80300005700C9032F
:1021300000007700CA0300006900CB0300007600AE
:10214000CC0300006F00CD0300007600CE0300003A
:102150007700010400004500100400004100110454
:10216000000062001204000042001304000054004A
:10217000140400005100150400004500160400007E
:102180002A00170400004500180400004E0019043E
:1021900000004E001A0400004B001B040000540015
:1021A0001C0400004D001D04000048001E04000037
:1021B0004F001F0400006E002004000050002104A6
:1021C00000004300220400005400230400005900D2
:1021D000240400006F0025040000580026040000BD
:1021E0005500270400007900280400005700290446
:1021F000000057002A04000062002B040000627CEB
:102200002C04000062002D04000065002E04000074
:102210007C4F2F040000397C300400006100310441
:102220000000360032040000420033040000720057
:10223000340400006100350400006500360400002D
:102240002A003704000065003804000075003904D6
:10225000000075003A0400006B003B0400006E00B3
:102260003C0400006D003D04000048003E040000F6
:102270006F003F0400006E00400400007000410445
:102280000000630042040000740043040000790071
:10229000440400007170450400007800460400000A
:1022A00075004704000079004804000077004904E5
:1022B000000077004A04000062004B040000627CCA
:1022C0004C04000062004D04000065004E04000054
:1022D0007C6F4F040000670051040000650022205D
:1022E00000002E001E210000507822210000544DD5
:1022F000902100003C2D922100002D3EB0210000D5
:102300000300BB21000004003C2200007E004822A4
:1023100000007E3D60220000213D612200003D0062
:10232000642200003C3D652200003E3DF123000098
:102330000700A03000003D0021F301000200C2F4BC
:1023400001000500A2000000EC00B0000000DF006A
:10235000E4000000E100F6000000EF00F7000000DC
:10236000FD00FC000000F500E3020000EB00870325
:102370000000A5008F030000F40098030000F200A5
:102380009E030000E300A3030000F600A903000081
:10239000F400AC030000E000AD030000E300B10373
:1023A0000000E000B2030000E200B5030000E3001B
:1023B000B8030000F200BC030000E400BE0300000C
:1023C000E300C0030000F700C1030000E600C30300
:1023D0000000E500902100007F00922100007E00B7
:1023E0001A220000E8001E220000F30088250000E9
:1023F000FF0002300000A1000C300000A2000D30F0
:102400000000A3009B300000DE009C300000DF00D5
:10241000A03000003D00A1300000A700A230000065
:10242000B100A3300000A800A4300000B200A53025
:102430000000A900A6300000B300A7300000AA00E9
:10244000A8300000B400A9300000AB00AA300000A2
:10245000B500AB300000B600AC300000B6DEAD30E9
:102460000000B700AE300000B7DEAF300000B800AB
:10247000B0300000B8DEB1300000B900B23000006A
:10248000B9DEB3300000BA00B4300000BADEB530B7
:102490000000BB00B6300000BBDEB7300000BC005F
:1024A000B8300000BCDEB9300000BD00BA3000001A
:1024B000BDDEBB300000BE00BC300000BEDEBD3063
:1024C0000000BF00BE300000BFDEBF300000C00013
:1024D000C0300000C0DEC1300000C100C2300000CA
:1024E000C1DEC3300000AF00C4300000C200C53000
:1024F0000000C2DEC6300000C300C7300000C3DEEB
:10250000C8300000C400C9300000C4DECA3000007A
:10251000C500CB300000C600CC300000C700CD3075
:102520000000C800CE300000C900CF300000CA0053
:10253000D0300000CADED1300000CADFD230000047
:10254000CB00D3300000CBDED4300000CBDFD53061
:102550000000CC00D6300000CCDED7300000CCDF4D
:10256000D8300000CD00D9300000CDDEDA300000D8
:10257000CDDFDB300000CE00DC300000CEDEDD3011
:102580000000CEDFDE300000CF00DF300000D000E2
:10259000E0300000D100E1300000D200E230000065
:1025A000D300E3300000AC00E4300000D400E5309C
:1025B0000000AD00E6300000D500E7300000AE00BE
:1025C000E8300000D600E9300000D700EA30000013
:1025D000D800EB300000D900EC300000DA00ED301C
:1025E0000000DB00EF300000DC00F2300000A6004D
:1025F000F3300000DD00F4300000B3DEF7300000FF
:10260000DCDEFA300000A6DEFB300000A500FC3066
:102610000000B000FD300000A400074E0000FB00E9
:1026200086510000FC0043530000FA0064FF0000E4
:10263000A40065FF0000A50066FF0000A60067FF7C
:102640000000A70068FF0000A80069FF0000A900C3
:102650006AFF0000AA006BFF0000AB006CFF0000E7
:10266000AC006DFF0000AD006EFF0000AE006FFF1C
:102670000000AF0070FF0000B00071FF0000B1006B
:1026800072FF0000B20073FF0000B30074FF00008F
:10269000B40075FF0000B50076FF0000B60077FFBC
:1026A0000000B70078FF0000B80079FF0000B90013
:1026B0007AFF0000BA007BFF0000BB007CFF000037
:1026C000BC007DFF0000BD007EFF0000BE007FFF5C
:1026D0000000BF0080FF0000C00081FF0000C100BB
:1026E00082FF0000C20083FF0000C30084FF0000DF
:1026F000C40085FF0000C50086FF0000C60087FFFC
:102700000000C70088FF0000C80089FF0000C90062
:102710008AFF0000CA008BFF0000CB008CFF000086
:10272000CC008DFF0000CD008EFF0000CE008FFF9B
:102730000000CF0090FF0000D00091FF0000D1000A
:1027400092FF0000D20093FF0000D30094FF00002E
:10275000D40095FF0000D50096FF0000D60097FF3B
:102760000000D70098FF0000D80099FF0000D900B2
:102770009AFF0000DA009BFF0000DB009CFF0000D6
:10278000DC009DFF0000DD009EFF0000DE009FFFDB
:102790000000DF00E5FF00005C00687474703A2FF1
:1027A0002F6D61726C696E66772E6F726700687448
:1027B00074703A2F2F6D61726C696E66772E6F722E
:1027C0006700687474703A2F2F6D61726C696E6661
:1027D000772E6F7267006275676669782D322E30CA
:1027E0002E78006275676669782D322E302E78005B
:1027F0006275676669782D322E302E780000687415
:1028000074703A2F2F6D61726C696E66772E6F72DD
:102810006700687474703A2F2F6D61726C696E6610
:10282000772E6F726700687474703A2F2F6D617223
:102830006C696E66772E6F726700206275676669D5
:10284000782D322E302E78002020506C616E6E650F
:102850007242756666657242797465733A2000202B
:1028600046726565204D656D6F72793A2000436F41
:102870006D70696C65643A204175672020332032A1
:102880003031390A00207C20417574686F723A201B
:102890002854656C6C69204D616E74656C6C692C94
:1028A000204B726973205761636C6177736B692C7D
:1028B0002053616D75656C2050696E636865732087
:1028C00026204D69636861656C2047696C6172649C
:1028D000692C2033726420417567203230313929E8
:1028E0000A00323031392D30372D333000204C6121
:1028F000737420557064617465643A200062756772
:102900006669782D322E302E780A004D61726C691E
:102910006E0020536F66747761726520526573652F
:10292000740A00205761746368646F67205265738E
:1029300065740A002042726F776E206F75742052A2
:10294000657365740A002045787465726E616C2049
:1029500052657365740A00506F77657255700A008E
:1029600073746172740A006175746F25632E670059
:102970006572726F722077726974696E6720746F06
:102980002066696C650A00446F6E65207361766924
:102990006E672066696C652E0A004D323900456EFF
:1029A0006473746F70702025632025632025632075
:1029B000256300205A3A0020593A0020583A006511
:1029C0006E6473746F7073206869743A20004732C4
:1029D000370041425320457874722E20566F72772B
:1029E000C3A4726D656E0041425320426574742029
:1029F000566F7277C3A4726D656E004142532056C4
:102A00006F7277C3A4726D656E0054656D706572E8
:102A1000617475720041626BC3BC686C656E004185
:102A2000425320566F7277C3A4726D656E00504C8E
:102A30004120566F7277C3A4726D656E004CC3BCA3
:102A4000667465722032004CC3BC667465722032B5
:102A5000004CC3BC667465722031004CC3BC667404
:102A600065722031004265747400426574740044DC
:102A7000C3BC73650044C3BC736500486175707462
:102A80006D656EC3BC004261627973746570205AD3
:102A9000004261627973746570205A00466C7573E8
:102AA000737261746500466C75737372617465004E
:102AB0004CC3BC667465722032004CC3BC6674653E
:102AC000722032004CC3BC667465722031004CC366
:102AD000BC6674657220310042657474004265748E
:102AE000740044C3BC73650044C3BC736500426595
:102AF0007474205A0042657474205A0047657363E9
:102B000068772E004765736368772E00486175709B
:102B1000746D656EC3BC00F001130110020E01302C
:102B20000204016002FD009002F8000003EF008043
:102B300003E8002004DE00E004D400D005CE00A0AD
:102B400006C7006007BF002008BA00E009B000B067
:102B50000BA700000E9E00E010940010148900B036
:102B6000177F00E01B750060206A0010256000C020
:102B7000295600302E4C00F02F4800E0333E006014
:102B8000383000E0392D00B03B2300603C1E0010BF
:102B90003D1900903D1400103E0F00703E0A00C029
:102BA0003E0500003F0000403FFBFF803FF6FFC0B6
:102BB0003FF1FF202D20496E76616C6964206578B5
:102BC000747275646572206E756D62657220210A7B
:102BD0000070012C0190012701B0012201C0011DEC
:102BE00001F00118011002130130020E0160020908
:102BF0000190020401C002FF000003FA004003F547
:102C0000008003F000D003EB002004E6007004E134
:102C100000E004DC004005D700C005D2004006CD2E
:102C200000D006C8008007C3003008BE00F008B915
:102C300000C009B400B00AAF00B00BAA00D00CA5C8
:102C400000000EA000500F9B00C010960050129183
:102C50000000148C00C0158700B0178200B0197DE9
:102C600000D01B7800001E730040206E0090226987
:102C700000F024640040275F0090295A00E02B55A3
:102C800000102E500020304B0010324600E033413F
:102C90000090353C001037370070383200A0392DD5
:102CA00000B03A2800A03B2300603C1E00103D19F4
:102CB00000903D1400103E0F00703E0A00C03E051B
:102CC00000003F0000403FFBFF803FF6FFC03FF1A8
:102CD000FF45312002204E49434854204552524579
:102CE00049434854004245545402204E49434854F5
:102CF00020455252454943485400546865726D61FD
:102D00006C2052756E61776179004531200220C3D5
:102D10009C42455253434852495454454E00424503
:102D20005454200220C39C424552534348524954B4
:102D300054454E004D415854454D502074726967BA
:102D40006765726564004531200220554E54455236
:102D500053434852495454454E004245545420026E
:102D600020554E54455253434852495454454E0001
:102D70004D494E54454D50207472696767657265C0
:102D800064004D383420582059205A204500202F07
:102D9000002042403A0020403A0020573A00205795
:102DA0003A00496E76616C69642065787472756466
:102DB00065720A004269747465206E65757374618A
:102DC0007274656E00445255434B4552204745533B
:102DD000544F505054004142474542524F4348459A
:102DE0004E005072696E7465722068616C7465641F
:102DF0002E206B696C6C28292063616C6C656421E2
:102E00000A006563686F3A004572726F723A000A91
:102E10004D6561737572656420706F696E74733A85
:102E20000A00486F74656E6420746F6F20636F6C66
:102E3000640A004D3630303A207A75206B616C742C
:102E400000486F74656E6420746F6F20636F6C64EC
:102E50000A00507265737320627574746F6E20740B
:102E60006F20726573756D650A00496E73657274C3
:102E70002066696C616D656E7420616E642070728D
:102E800065737320627574746F6E0A005072657397
:102E90007320627574746F6E20746F20686561743E
:102EA000206E6F7A7A6C650A00496E7365727420C1
:102EB00066696C616D656E7420616E642070726508
:102EC000737320627574746F6E20286F72204D3199
:102ED0003038290A0043616E6E6F74206F70656E22
:102EE00020737562646972200053442063617264C8
:102EF000206F6B0A006F70656E526F6F7420666191
:102F0000696C65640A00766F6C756D652E696E6913
:102F100074206661696C65640A00534420696E69B7
:102F200074206661696C0A004D3234004D323320E2
:102F300025730057726974696E6720746F20666923
:102F40006C653A20002E0A006F70656E206661691C
:102F50006C65642C2046696C653A20002E0A006F6F
:102F600070656E206661696C65642C2046696C65CD
:102F70003A200046696C652073656C65637465640E
:102F80000A002053697A653A200046696C65206F13
:102F900070656E65643A2000667265736800646FE0
:102FA000696E67002066696C653A20004E6F772075
:102FB00000454E4420535542524F5554494E450A00
:102FC000002220706F73002220706172656E743A67
:102FD0002200535542524F5554494E452043414CCF
:102FE0004C207461726765743A2200747279696E5C
:102FF0006720746F2063616C6C207375622D67634A
:103000006F64652066696C657320776974682074E5
:103010006F6F206D616E79206C6576656C732E2004
:103020004D4158206C6576656C2069733A310A0011
:1030300002220A00556E6B6E6F776E20636F6D6DA6
:10304000616E643A20220020746F6F206C6F6E678F
:1030500020657874727573696F6E2070726576651D
:103060006E7465640A0020636F6C64206578747206
:103070007573696F6E2070726576656E7465640A2B
:1030800000001C1F11111F00000006191803130C6B
:1030900000040E1F041C000000000E1315110E008A
:1030A000001C10181705060500040A0A0A0A111167
:1030B0000E0C12120C00000000001F1511151F004D
:1030C000002D2D2D2D2D2D007C4D61726C696E7C97
:1030D000002D2D2D2D2D2D000000000001020404D7
:1030E0000000001C1C0C040404020100000000008D
:1030F00004081000000000004A474175726F7261B9
:103100002041352062657265697400447275636B95
:10311000742E2E2E00447275636B20706175736976
:103120006572742E2E2E00447275636B2061626787
:103130006562726F6368656E000000A0C0000000E9
:1031400000000000000000A0420000A0420000407B
:10315000415761726E696E673A20486F6D696E679C
:103160002042756D702044697669736F72203C202F
:10317000310A000A0A060000A0400000A04000003A
:10318000004000009B43008098430000A043FFFFE5
:10319000FF4265776567652058004265776567651A
:1031A000205900426577656765205A00426577655A
:1031B000676520457874727564657200426577654D
:1031C000676520457874727564657200426577653D
:1031D0006765205A0042657765676520590042653A
:1031E000776567652058004265776567756E67008B
:1031F0004D6F746F72656E206465616B746976697A
:103200006572656E004D383400426574742D4E69E8
:1032100076656C6C696572756E6700486F6D6520C8
:1032200058595A004732380041636873656E20620E
:1032300065776567656E0048617570746D656EC30E
:10324000BC003F0053746172746520447275636BF7
:10325000200041626272656368656E004472756346
:103260006B656E0043616E6E6F7420656E7465727F
:10327000207375626469723A2000052E2E00486141
:103280007570746D656EC3BC00504C4120457874F8
:10329000722E20566F7277C3A4726D656E00504C0B
:1032A00041204265747420566F7277C3A4726D65B5
:1032B0006E00504C4120566F7277C3A4726D656EDC
:1032C0000054656D706572617475720056206D6989
:1032D0006E204C65657266616872740056206D6977
:1032E0006E204C65657266616872740056206D6967
:1032F0006E200056206D696E200056206D6178208A
:10330000450056206D617820450056206D6178207B
:103310005A0056206D6178205A0056206D61782041
:10332000590056206D617820590056206D61782033
:10333000580056206D61782058004572772E204540
:10334000696E7374656C6C756E67656E0041206D97
:10335000617820450041206D617820450041206D55
:103360006178205A0041206D6178205A0041206D1B
:10337000617820590041206D617820590041206D0D
:10338000617820580041206D617820580041204C20
:1033900065657266616872740041204C656572668D
:1033A0006168727400412045696E7A75670041203A
:1033B00045696E7A75670042657363686C65756E02
:1033C0006967756E670042657363686C65756E69E1
:1033D00067756E67004572772E2045696E73746558
:1033E0006C6C756E67656E004572726F72207772D5
:1033F0006974696E6720746F20454550524F4D21A6
:103400000A00363726033C3D380E2E303E121A1C79
:103410001808440AFF430809070001627573793AE6
:103420002070617573656420666F7220696E7075B7
:10343000740A00627573793A20706175736564204F
:10344000666F7220757365720A00627573793A202F
:1034500070726F63657373696E670A004D36303042
:10346000004B494C4C206361757365642062792080
:103470004B494C4C20627574746F6E2F70696E0AE4
:10348000004B494C4C206361757365642062792060
:10349000746F6F206D75636820696E6163746976FF
:1034A000652074696D65202D2063757272656E7478
:1034B00020636F6D6D616E643A2000000020002370
:1034C00000260029002C002F00320000010000031C
:1034D0000106010901050505050705080808080298
:1034E0000202020A0A08080404040401010101019D
:1034F0000101010303030303030303040707070C8C
:103500000C0C0C0C0C0C0C02020202060606060641
:103510000606060B0B0B0B0B0B0B0B0102102020EE
:103520000808102040102040800201020108040217
:10353000010102040810204080804020100804028D
:1035400001800402018040201008040201080402E6
:1035500001010204081020408001020408102040EC
:103560008000000A0B02090C0D0E0807030401007D
:10357000000000000000000000000000000000004B
:103580000000000000000000000000000012111008
:10359000000000000000000000000000000000002B
:1035A00000000000000000202573206D6D00002049
:1035B000302C312020206D6D0020312C3020202037
:1035C0006D6D0031302C302020206D6D004163681E
:1035D00073656E206265776567656E00486F746518
:1035E0006E64207A75206B616C7400426577656744
:1035F0006520457874727564657200426577656709
:1036000065205A00426577656765205900426577F5
:1036100065676520580047323800566F72686572DA
:103620002025732573257320686F6D656E002068F3
:103630006F6D656E0A00566F7268657220002575A1
:103640003A2530327500253032753A253032750012
:103650002D2D2D005344002020202020202000204C
:103660002020200053442D4B6172746520656E74D8
:103670006665726E740053442D4B617274652065EB
:10368000726B616E6E74004B6F6E6669672E206C94
:103690006164656E005374616E6461726477657213
:1036A0007465206C6164656E004B6F6E6669672E91
:1036B0002073706569636865726E004142532045EE
:1036C000696E7374656C6C756E67656E00504C4105
:1036D0002045696E7374656C6C756E67656E00610C
:1036E000757300616E0052756E6F75742D53656E43
:1036F000736F72004572772E2045696E7374656C26
:103700006C756E67656E0048617570746D656EC32B
:10371000BC004D37303220542564004D3630302007
:10372000423020542564004D373032203B25640060
:103730004D373031205425640046696C616D656EEB
:1037400074207765636873656C6E0062656E75746E
:103750007A65726465662E204865697A656E0041F7
:10376000425320566F7277C3A4726D656E00504C41
:103770004120566F7277C3A4726D656E0062656EEC
:1037800075747A65726465662E204865697A656E1F
:10379000005A7572C3BC636B00447275636B20770B
:1037A00065697465720061757300616E0052756EB3
:1037B0006F75742D53656E736F72004D656872205E
:1037C000656E746C6164656E00464F5254532E20D2
:1037D0004F5054494F4E454E3A00445255434B20AA
:1037E00050415553494552540046494C414D454E70
:1037F0005420454E544C4144454E0046494C414DA1
:10380000454E54204C4144454E00202044C3BC73D7
:10381000653A2000200048617264636F646564202B
:1038200044656661756C742053657474696E677362
:10383000204C6F616465640A00E8030000F4010035
:103840000064000000881300000000FA430000FA42
:1038500043000070410000C8410000A0420000A0E9
:1038600042000048440000C842486F6D696E6720FE
:103870006765736368656974657274006F70656EFF
:1038800000545249474745524544003A2000666972
:103890006C616D656E74007A5F6D696E00795F6D45
:1038A000696E00785F6D696E005265706F72746941
:1038B0006E6720656E6473746F70207374617475C5
:1038C000730A00205A3A0020593A0020436F756E5F
:1038D0007420583A0020453A00205A3A0020593ABC
:1038E00000583A0020746F6F206C6F6E6720657807
:1038F00074727573696F6E2070726576656E74652B
:10390000640A0020636F6C64206578747275736953
:103910006F6E2070726576656E7465640A00706102
:103920007573696572742E2E2E00447275636B2058
:103930006973740046696C616D656E747765636860
:1039400073656C732E2E2E0053746172742064653F
:1039500073005761727465206175662064656E003E
:103960006465732046696C616D656E74732E2E2ECE
:10397000004865726175736E61686D6500576172AC
:103980007465206175660062697474652077617280
:1039900074656E2E2E2E0044C3BC73652068656965
:1039A0007A74206175660044C3BC736520617566D6
:1039B0007A756865697A656E004B6E6F7066206413
:1039C00072C3BC636B656E20756D00756D20666F8C
:1039D00072747A757365747A656E00756E64204BC7
:1039E0006E6F7066206472C3BC636B656E0046695F
:1039F0006C616D656E742065696E6C6567656E00DF
:103A000046696C616D656E74732E2E2E004C616478
:103A1000656E206465730057617274652061756618
:103A200000447275636B20666F72747A7573657487
:103A30007A656E004B6E6F7066206472C3BC636BF8
:103A4000656E20756D00447275636B732E2E2E00AB
:103A5000466F72747365747A656E2064657300577F
:103A600061727465206175660046696C616D656E92
:103A700074732E2E2E00456E746C6164656E206426
:103A8000657300576172746520617566003F00536D
:103A9000442D447275636B20616262726563686570
:103AA0006E005A7572C3BC636B0053746F70004D27
:103AB000323520500A4D323400447275636B2070E9
:103AC000617573696572742E2E2E0053442D4472F5
:103AD00075636B2070617573696572656E004D3238
:103AE0003400447275636B20762E2053442D4B6155
:103AF0007274650053442D4B617274652067657460
:103B0000617573636874004D32310046696C616D94
:103B1000656E74207765636873656C6E0046696CCA
:103B2000616D656E74207765636873656C6E004DBA
:103B3000363030204230004B6F6E666967757261B7
:103B400074696F6E0054656D706572617475720092
:103B50004265776567756E670053442D44727563DF
:103B60006B20666F72747365747A656E004B65695D
:103B70006E652053442D4B61727465004A757374F1
:103B8000696572756E670053442D447275636B20CE
:103B900061626272656368656E0053442D4472759C
:103BA000636B2070617573696572656E00496E663E
:103BB0006F002E0A006F70656E206661696C656427
:103BC0002C2046696C653A2000206E6F7420656E6B
:103BD00074657265642E0A00206F6620004D424CA9
:103BE0002047323920706F696E742000290A004A1C
:103BF000206F7574206F662072616E6765202830B3
:103C00002D00290A0049206F7574206F66207261AB
:103C10006E67652028302D004D6573682070726FC7
:103C200062696E6720646F6E652E0A00537461725C
:103C300074206D6573682070726F62696E6720779B
:103C40006974682022473239205331222066697214
:103C500073742E0A004732380A4732392053320033
:103C6000686173206E6F20646174612E0A004D6577
:103C7000736820426564204C6576656C696E6720C8
:103C80000053206F7574206F662072616E67652027
:103C900028302D35292E0A0020496E76616C696422
:103CA0002065787472756465722000562045204A3C
:103CB00065726B00562045204A65726B0056205A8B
:103CC000204A65726B0056205A204A65726B005676
:103CD0002059204A65726B00562059204A65726B44
:103CE00000562058204A65726B00562058204A65BD
:103CF000726B004572772E2045696E7374656C6C2B
:103D0000756E67656E00452053746570732F6D6D19
:103D100000452053746570732F6D6D005A205374E5
:103D20006570732F6D6D005A2053746570732F6D1D
:103D30006D00592053746570732F6D6D00592053B9
:103D4000746570732F6D6D00582053746570732FF8
:103D50006D6D00582053746570732F6D6D00457242
:103D6000772E2045696E7374656C6C756E67656E31
:103D7000003F005765726B7365696E7374656C6C98
:103D8000756E67656E0041626272656368656E009C
:103D900042657374C3A4746967656E0000002100F6
:103DA000240027002A002D0030003300010100000C
:103DB000040107010A0100002200250028002B0051
:103DC0002E003100340002010000050108010B0142
:103DD0004361703A0000C100450111241FBECFEFBE
:103DE000D1E2DEBFCDBF00E00CBF13E0A0E0B2E047
:103DF000ECECF1E302E00BBF02C007900D92A63895
:103E0000B107D9F724E1A6E8B3E001C01D92A632BC
:103E1000B207E1F71EE1CCEEDEE100E006C021973B
:103E20000109802FFE010F94C015CB3ED10780E021
:103E30000807A9F70E9437FE0D94D4180C940000CF
:103E40002F923F924F925F926F927F928F929F92AA
:103E5000AF92BF92CF92DF92EF92FF920F931F9398
:103E6000CF93DF93CDB7DEB7E1970FB6F894DEBFFF
:103E70000FBECDBF89AB20918F0328AB21E02093EB
:103E80008F0380911F148D3409F463C2843511F4BB
:103E90000C941F31873411F00C94263180911D143D
:103EA00090911E148B31910509F41DC1A4F4843046
:103EB000910509F4D9C01CF4029768F146C2853116
:103EC000910511F40C9428314A9709F03EC20E94E2
:103ED000AF5A0C9428318A32910509F4BEC15CF4C2
:103EE0008C31910509F428C14D9709F02EC20E942A
:103EF00013F50C9428318B35910509F42CC18C35C0
:103F0000910509F42CC18A35910509F01EC2109261
:103F10009A030C94283180910F02882311F40C9499
:103F2000283141E7842E42E0942E5EE2E52E5FE0E8
:103F3000F52E0FE112E066E0A62E6EE0B62E76E9D1
:103F4000C72E73E0D72E712CD4018D914D010E94A4
:103F5000935A882319F10E945C5AF601208121119D
:103F600004C020919A03222341F0D8012D913D9164
:103F70004D915C910F94C9150AC0B3E07B1639F0DE
:103F8000F50120813181428153810F94C815D701F9
:103F90006D937D938D939C9313970AC0F801808154
:103FA0009181A281B381F70180839183A283B3833E
:103FB0007394F4E0EF0EF11C0C5F1F4F24E0A20E8F
:103FC000B11C3FEFC31AD30A84E07812BDCF40E0A2
:103FD00050E0BA0186E40E94316F20E030E0A90190
:103FE0000F949017181684F40E945C5A20E030E079
:103FF00040E752E40F945116609363027093640299
:10400000809365029093660280915E0D83FD28C0C7
:104010008091AD05882321F120912B0230912C0253
:1040200040912D0250912E0260913A0F70913B0FFA
:1040300080913C0F90913D0F0F94C8152091BA05C7
:104040003091BB054091BC055091BD050F94C91539
:104050006093BA057093BB058093BC059093BD0532
:104060000E9475E30C94283180E50E94935A8823BE
:1040700029F00E9403F56B017C0103C0C12CD12CF7
:10408000760183E50E94935A882361F00E945C5A6E
:1040900020E030E04AE754E40F942B0F0F94CA1647
:1040A0006B017C010E94B6BA80911F08811105C086
:1040B00060E08DE695E00E945BB50E942FFCC60E85
:1040C000D71EE81EF91E0E942FFCDC01CB018C19C3
:1040D0009D09AE09BF09B7FD02C00C94283180E0EC
:1040E0000E94ACCAF0CF0E949CCF81110C94283161
:1040F00080E090E0A0EAB0E489839A83AB83BC833C
:1041000080E090E8A3E9B3E48D839E83AF83B88712
:1041100080E090E0A0EAB1E489879A87AB87BC870A
:1041200060E070E080E50E94F0F4BE016F5F7F4FB9
:104130000E94DCB00C94283180913F0F877087304B
:1041400011F00C9431318FE40E94D3A381110C94AF
:1041500028310C94313120939A030C94283181E753
:10416000282E82E0382E92E1E92E9EE0F92E2FE1F2
:1041700032E03DA32CA326E0C22E2EE0D22E00E09A
:1041800010E0D1018D911D010E94935A882309F4FA
:104190004BC00E945C5A2B013C01133049F0F601E0
:1041A00020813181428153810F94C8152B013C013C
:1041B000ACA1BDA12D913D914D915C91C301B20186
:1041C0000F94C8154B015C012DEB37E346E855EB26
:1041D0000F94901787FD0AC02DEB37E346E855E3AF
:1041E000C501B4010F94C50E1816F4F4133051F440
:1041F00040922B0250922C0260922D0270922E025D
:1042000001E012C0A5019401F701608171818281F2
:1042100093810F94C915D7016D937D938D939C93D2
:104220001397812F0E94ACBE1F5FB4E0EB0EF11C10
:10423000ECA1FDA13496FDA3ECA3F4E0CF0ED11CBC
:10424000143009F09ECF002321F08BE292E00E940F
:10425000C7BA0E9412E80C94283180910F0288237B
:1042600011F40C94283189E40E94935AE82E882393
:1042700021F00E94585A082F01C000E08AE40E94F1
:10428000935AF82E882321F00E94585A182F01C003
:1042900010E0EE2011F0053020F4FF2041F0153041
:1042A00030F087E795E00E94D0890C9428310E9475
:1042B0000659EE2091F024E00202F0011124E458A6
:1042C000FD4E80819181A281B38180932E0F9093C6
:1042D0002F0FA093300FB093310FFF2091F034E0F7
:1042E0001302F0011124E859FD4E80819181A281D1
:1042F000B3818093320F9093330FA093340FB09318
:10430000350F80E50E94D3A340E050E0BA0186E477
:104310000E94316F6B017C0120E030E0A9010F9415
:10432000901718160CF09CCE20E030E040E752E4E5
:10433000C701B6010F945116609363027093640233
:1043400080936502909366028BCE0E94C5A30C9465
:10435000283180911D1490911E148337910509F422
:10436000A6C70CF0B2C08C34910509F41CC40CF043
:1043700055C08931910509F4BAC21CF58431910503
:1043800009F43FC27CF48131910509F42BC22CF46D
:10439000029708F4ABC10C941C31429709F465C62E
:1043A0000C941C318631910509F455C20CF44FC2AE
:1043B0008731910509F458C2489709F46BC20C94EF
:1043C0001C318E31910509F408C3ACF48B31910591
:1043D00009F4A6C20CF496C28C31910509F4F3C21B
:1043E0004D9711F00C941C318091A9138E7F80930E
:1043F000A9130C9428318032910509F44DC30CF4B3
:1044000090C38A32910509F4ACC38B34910511F045
:104410000C941C310E94E7B80C9428318936910520
:1044200009F494C544F58335910509F41AC69CF442
:104430008E34910509F4BFC30CF4B9C381359105DD
:1044400009F4FAC58235910511F00C941C311092D3
:1044500099030C9428318535910509F43BC60CF479
:1044600004C68C35910509F450C68836910509F4C7
:1044700034C40C941C318E36910509F4B0C484F414
:104480008B36910509F4C6C50CF49CC58C36910594
:1044900009F4FCC48D36910509F443C40C941C3115
:1044A0008037910509F4F8C40CF4ACC48137910548
:1044B00009F4FCC48237910511F00C941C310E9460
:1044C000B6BA0E9412E80C942831823E910511F48C
:1044D0000C94732C0CF07FC08E3B910509F421C520
:1044E000D4F58937910509F490C7ECF48637910526
:1044F00009F456C734F48537910509F441C70C9483
:104500001C318737910509F47DC78837910511F073
:104510000C941C3181E08093BF058093BE050E94FE
:104520004DE90C9428318C38910509F4E4C44CF41D
:104530008D37910511F00C941C310E9414F40C94E9
:1045400028318139910509F467C78B39910509F440
:1045500011C50C941C318D3C910511F40C942C2B3D
:10456000C4F4893C910511F40C94B32A34F4883CCA
:10457000910509F4ABC70C941C318B3C910511F4E7
:104580000C94D72A8C3C910511F40C94F82A0C94C5
:104590001C31833D910511F40C945A2B84F48E3C0C
:1045A000910511F00C941C3131E7C32E32E0D32E6B
:1045B00042ECE42E45E0F42E10E00C94472B8C3DA9
:1045C000910511F40C94102C8D3D910511F40C946F
:1045D0001D2C0C941C31853AA1E09A0711F40C941F
:1045E000022FF4F58F32E1E09E0711F40C94A22D16
:1045F000DCF48C3221E0920711F40C94CA2C3CF4C8
:104600008232914011F40C94BF2C0C941C318D32E9
:10461000B1E09B0711F40C94DF2C8E32914011F421
:104620000C945E2D0C941C318A39F1E09F0709F43B
:1046300039C44CF48039914011F00C941C310E9423
:10464000B6BA0C9428318C39A1E09A0711F40C9475
:10465000A52D843A914011F40C94AB2D0C941C318F
:10466000883FE1E09E0711F40C947E30ECF4843F27
:1046700021E0920711F40C9478303CF48C3A91408C
:1046800011F40C94D32F0C941C31853FB1E09B079F
:1046900011F40C947B30863F914011F00C941C3146
:1046A0000E9463E90C9428318B35F2E09F0711F4E6
:1046B0000C9496307CF48C3032E0930711F40C9417
:1046C0008E308835924011F00C941C310E9408F312
:1046D0000C942831803AB3E09B0709F412C2873E5C
:1046E000934011F40C940F310C941C31A0901B14C6
:1046F000B0901C1480E50E94935A882359F00E94C0
:1047000003F56B017C0111E0672B682B692B31F4F9
:1047100010E004C010E0C12CD12C760183E50E948A
:10472000935A882311F40C94B4320E945C5A20E00E
:1047300030E04AE754E40F942B0F0F94CA166B0134
:104740007C0111110BC0672B682B692B39F4A11464
:10475000B10421F0D5018C91811102C010E001C09B
:1047600011E00E94B6BA112329F061E0C5010E9450
:10477000A7B505C060E086E995E00E945BB51091A1
:104780008F0383E080938F0381E08093E30DC11456
:10479000D104E104F104B1F00E942FFCC60ED71E33
:1047A000E81EF91E0E942FFCDC01CB018C199D092B
:1047B000AE09BF09B7FF0EC08091E30D81110C94C3
:1047C000B93208C08091E30D882321F080E00E9477
:1047D000ACCAF8CF0E94CDB51092E30D10938F03B1
:1047E0000C94283160E08BEA95E00E945BB55F98FD
:1047F0008A988091080181708093060112980C9428
:1048000028318FEC95E00E94D089109212088BEE2F
:1048100091E10E94ED3E8BE1EBEEF1E1DE011196BC
:1048200001900D928A95E1F740E050E0BE016F5F84
:104830007F4F80E090E00E945392CE0101960E944B
:10484000074280EC95E00E94D0890C9428310E94A8
:104850003A910C9428310E94C9908091A913877FC6
:104860008093A9130C942831E0911B14F0911C142F
:104870008081882329F0803209F410823196F8CFA4
:1048800040E061E080911B1490911C140E94F19310
:104890000C9428318091A4078823E9F080E090E00F
:1048A000A8E4B2E488A399A3AAA3BBA31C8E1D8E7F
:1048B0001E8E1F8E19821A821B821C8220E0AE017E
:1048C000405E5F4FBE01645E7F4FCE0101960E9445
:1048D0001C8B0C9428310E942074882321F00E94A4
:1048E000DA900E94E7B80E94CDB50C9428318091EF
:1048F000A91382FF03C08B7F8093A9130E9414F435
:104900000C9428318091A91383FD02C00C942831A6
:1049100083E50E94935A81110C94BE320C94283185
:1049200083E40E944088882319F18AEE95E00E9472
:10493000D08980919511882391F0BE016F5F7F4FE0
:1049400082E991E10E9497418E010F5F1F4FF801AC
:1049500081918F01882339F00E94A5CAF8CF80EE9B
:1049600095E00E94D0898AE00E94A5CA0C94283163
:104970008091A91382FF21C089EF95E00E94D08920
:104980006091A5137091A6138091A7139091A8131D
:104990004AE00E9426CE8FE20E94A5CA6091A11330
:1049A0007091A2138091A3139091A4134AE00E94E6
:1049B00026CE0E9424CF0C9428318BE096E00E94F2
:1049C000D0890C94283140E060E080911B149091D4
:1049D0001C140E94F1930C9428318091A91383FD3B
:1049E00002C00C9428310E94AEA38091A91383FDCC
:1049F00002C00C94283160911B1470911C14CE01DC
:104A00004C960E945BF08C01009711F40C942831B5
:104A10006C8D7D8D19821C8222E0AC01CE01019645
:104A20000E94FC43811102C0F12C14C0CE010196FA
:104A30000E94C9EF8823C1F361E0CE0101960E9474
:104A40007B41009789F325EEDC012C931C820E94A8
:104A5000103CF82ECE0101960E940742B801FF20BB
:104A600089F087E396E00E94C58A8AE00E94A5CA81
:104A70001092A5131092A6131092A7131092A813C8
:104A80000C9428318FE196E00E94C58A8CE196E073
:104A90000E94D0890C9428318091A91382FD0E9434
:104AA000B6BA8091A91383FD02C00C94283180E529
:104AB0000E94D3A3182F482F61E080911B1490917E
:104AC0001C140E94F19383E50E94935A882381F07D
:104AD0000E94245AAB01BC014093A5135093A61326
:104AE0006093A7137093A81382E991E10E94563E48
:104AF0000E94DA9011110C9428310E94E7B80C94AE
:104B0000283120911B1430911C149091A9139260AC
:104B10009093A91340E060E0C9010E94F1930C94C6
:104B200028310E94AF4F6C8F7D8F8E8F9F8FBE017B
:104B30006F5F7F4FCE014C960E94447360E0CE01C0
:104B400001960E94A7B50E94DC8ABE016F5F7F4F6D
:104B500085E496E00E94C58A8AE00E94A5CA0C946A
:104B6000283183E50E94935A882311F40C9428314C
:104B70000E94345AF82E6DE070E080E50E94A05A41
:104B80008C0197FF02C00C942831E82E89E40E9422
:104B9000D3A381110C94CF32802F0F94C7058111BC
:104BA000BFC60C94CF320E946BAB0C9428310E948C
:104BB00043B90C94283160E070E083E50E94A05A6C
:104BC0008E34910531F40E94B4B90E94CDB50C9495
:104BD000283180EB96E00E94D0896091AE057091FB
:104BE000AF0587EA96E00E949A8A6091B0057091BD
:104BF000B1058AE996E00E949A8A6091AE057091AB
:104C0000AF058091B0059091B105681B790B80913B
:104C1000A70E815021E030E0823010F020E030E03B
:104C2000621B730B8FE896E00E949A8A8AE00E94CA
:104C3000A5CA87E896E00E94D0898091B20590913C
:104C4000B305A091B405B091B5058C8F9D8FAE8F43
:104C5000BF8FBE016F5F7F4FCE014C960E944473A1
:104C6000BE016F5F7F4F8AE796E00E94C58A809100
:104C7000B6059091B705A091B805B091B9058C8F94
:104C80009D8FAE8FBF8FBE016F5F7F4FCE014C9661
:104C90000E944473BE016F5F7F4F8AE696E00E94D8
:104CA000C58A20E030E04AE754E46091BA0570918B
:104CB000BB058091BC059091BD050F945116AB01C9
:104CC000BC0182E596E00E94A78A8DE60E94A5CAF3
:104CD0008AE00E94A5CA0C94283180915E0D83FF62
:104CE00002C00C9428310E94DFF287FF02C00C94AE
:104CF000283183E50E94935A882379F00E945C5AF8
:104D00000F94C3168B01CB010E94F0850635110567
:104D100024F40E9443B90E94CDB50F94C6040C94AC
:104D2000283180915E0D83FF02C00C9428310E94CF
:104D3000DFF2F82E87FF02C00C94283183E50E9431
:104D4000935A082F811106C082E50E94935A182FAA
:104D50008823C1F10E945C5A0F94C316CB010E94B4
:104D6000F0850E945C5A20E030E04AEA52E40F9459
:104D7000C50E181614F40C94E8320E9443B90E9430
:104D8000CDB560918D0870918E08072E000C880BB0
:104D9000990B0F94CC0E4B015C0140908908509008
:104DA0008A0860908B0870908C08A30192010F9480
:104DB0009017181614F40C94FB32002311F40C9481
:104DC000EC3211E00F94C604112311F40C94283135
:104DD00040E0602F8F2D0E944E810C9428318EE48C
:104DE0000E94935A882311F40C9428310E94245A6B
:104DF00060933D0570933E0580933F059093400579
:104E00000C94283183E50E944088882329F083E5AB
:104E10000E94F7CF80935E0D0E94DC8A89EE96E0B7
:104E20000E94D08980915E0D882369F10FEDE02EFC
:104E300006E0F02E00E010E020E080915E0D90E0B2
:104E4000A0E0B0E0002E04C0B695A7959795879591
:104E50000A94D2F780FF0EC0DD24D394D20E222311
:104E600019F08CE20E94A5CAF701859194910E94E5
:104E7000D0892D2D0F5F1F4FB2E0EB0EF11C0530D6
:104E80001105D9F670CD8BED96E06BCD1092E30D48
:104E900010921A020C94283180E090E00E946A8EF1
:104EA0000C9428310E945FC90C94283183E50E943C
:104EB000935A882381F00E94345A282F30E02D33F2
:104EC000310524F4809300020C9428318CE3809304
:104ED00000020C9428310E94DC8A4091000250E0CC
:104EE00060E070E080EF96E00E94898A8AE00E948C
:104EF000A5CA0C94283180915E0D83FF02C00C94EA
:104F0000283183E50E94935A882311F40C942831A8
:104F10000E945C5A0F94C316CB010E94F8580C945F
:104F2000283180915E0D83FF02C00C94283183E507
:104F30000E94935A182F81110C94FE3282E50E9430
:104F4000935A81110C94FE320C9428310E94DFF2A6
:104F5000182F87FD0AC084E197E00E94D089812F35
:104F60000E944F7F8AE00E94A5CAE8A9E0938F03C0
:104F70000C94953483E50E94935A882311F40C9481
:104F800028310E94345A182F90E0CD970CF01CE382
:104F900010938A030E942FFC6B017C01212F30E0CB
:104FA000A8EEB3E00F946F15C60ED71EE81EF91ECB
:104FB000C0928603D0928703E0928803F09289031F
:104FC0000C94283180E50E94F7CF182F823010F022
:104FD0000C94283181E40E944088882321F060915C
:104FE000720870E002C06FEF70E083E50E94F0F499
:104FF000212F30E08F3F910519F010F08FEF90E0F6
:10500000F901EE58F74F8083F901E952F14F80839F
:105010000C94283180E50E94F7CF823010F00C9478
:10502000283190E0FC01EE58F74F1082FC01E95264
:10503000F14F10820C9428310E9401860E9443B9DE
:105040000E940EBC0E940ACA68EE73E080E090E005
:105050000E94AC8960E087E197E00E945BB50C9408
:105060002831209399030C94283183E50E94935AA8
:105070008823A1F00E945C5A20E030E04AE754E423
:105080000F942B0F0F94CA166093010270930202C3
:1050900080930302909304020C94283188E50E94C7
:1050A000408881110C94343389E50E944088811135
:1050B0000C9434338AE50E94408881110C94343377
:1050C00085E40E94408881110C9434330E940EBC08
:1050D0000C94283183E50E944088882311F40C94B5
:1050E00028310E945C5A20E030E04AE754E40F94F3
:1050F0002B0F0F94CA1660938B0370938C038093CD
:105100008D0390938E030C9428310E94DFF287FF69
:1051100002C00C9428318091171484FD04C0809142
:10512000191487FF0AC0B1E7CB2EB2E0DB2E1FE5D2
:10513000E12E1DE0F12E10E03BC080911A14837027
:1051400091F70E94DC8A4091730D5091740D60912B
:10515000750D7091760D81E397E00E94A78A4091CA
:10516000770D5091780D6091790D70917A0D8EE2E6
:1051700097E00E94A78A40917B0D50917C0D609131
:105180007D0D70917E0D8BE297E00E94A78A409181
:105190007F0D5091800D6091810D7091820D88E29C
:1051A00097E00E94A78A8AE00E94A5CA0C94283141
:1051B000D6018D916D010E94935A882309F46DC028
:1051C000133009F063C00E945C5A4B015C0120E07F
:1051D00030E040EA51E40F94C50E87FF4EC0A501B0
:1051E000940160917F0D7091800D8091810D90915F
:1051F000820D0F9451162B013C019B01AC01609173
:1052000056087091570880915808909159080F944A
:105210002B0F60935608709357088093580890930B
:105220005908A301920160918F0D7091900D8091AA
:10523000910D9091920D0F942B0F60938F0D7093A1
:10524000900D8093910D9093920D609166087091EE
:10525000670880916808909169080F94CA0EA301AD
:1052600092010F942B0F0F94CA16609366087093E7
:105270006708809368089093690880927F0D9092E8
:10528000800DA092810DB092820D07C00E945C5AE1
:10529000F701648B758B868B978B1F5FF4E0EF0EA5
:1052A000F11C143009F084CF0E9492BAD1C78CE56A
:1052B00098E00E94D08960E08CE498E00E9402FEB1
:1052C00060E087E398E00E9402FE61E080E398E0FE
:1052D0000E9402FE61E085E298E00E9402FE61E029
:1052E00085E198E00E9402FE60E08CE098E00E9478
:1052F00002FE61E082E098E00E9402FE60E088EF3A
:1053000097E00E9402FE60E080EF97E00E9402FEBC
:1053100061E082EE97E00E9402FE60E084ED97E09B
:105320000E9402FE60E085EC97E00E9402FE60E0D1
:1053300087EB97E00E9402FE60E081EA97E00E941E
:1053400002FE60E080E997E00E9402FE60E081E8F2
:1053500097E00E9402FE60E08CE697E00E9402FE69
:1053600061E089E597E00E9402FE60E08CE497E04E
:105370000E9402FE60E088E397E00E9402FE68C798
:1053800080911B1490911C14009709F4ACCADC01A5
:105390002C91222309F4A7CA60E00E94A7B558C740
:1053A00000911B1410911C1483E0F12C40E08150FB
:1053B000E1F0F8019081292F2B7F2134C1F7218161
:1053C0002133A9F7913421F0953421F441E002C052
:1053D000FF24F39498012E5F3F4F89012F5F3F4FC9
:1053E000D8019C919032C9F3E2CF41110E94DC8A2E
:1053F000FF2021F08AE299E00E94D089C8010E9432
:105400002ACF26C70E9423E923C71092BF05109216
:10541000BE050E944DE91CC760E070E083E50E9474
:10542000A05A8C011127023011053CF00E94D88A45
:105430008EE299E00E94D0890BC788E40E94935ABB
:105440008823A1F00E94585A8A3A910534F08B3F84
:1054500091052CF08AEF90E002C08AEA90E0F80112
:10546000EE0FFF1FE759F04F9183808386E40E947F
:10547000935A882381F00E94585A97FD07C08F3FA6
:10548000910529F024F08FEF90E001C080E0F80151
:10549000ED59F04F808382E40E94935A882309F4E7
:1054A000D7C60E94585A8530910534F08F36910541
:1054B0002CF08EE690E002C085E090E0F801EE0F5F
:1054C000FF1FEB59F04F91838083C2C60E94DFF229
:1054D000182F87FDBDC684E40E944088882309F404
:1054E0003FC00E945C5A6B017C0101E020E030E08B
:1054F000A9010F94C50E811101C000E00093920E26
:1055000020E030E0A901C701B6010F94C50E882341
:1055100039F10E945C5AB4E01B02F0011124E956F3
:10552000F14F608371838283938320E030E0A9018F
:105530006091970E7091980E8091990E90919A0EAD
:105540000F94C50E81110CC080E090E0A0EEBFE387
:105550008093970E9093980EA093990EB0939A0E05
:105560000E9448B675C60E94DFF287FD71C661E7EA
:10557000E62E62E0F62E0FE51DE0F70181917F0136
:105580000E944088882351F00E945C5A0F94CA16EA
:10559000D8016D937D938D939C9313970C5F1F4F50
:1055A000BDE00F361B0749F70E944BBA51C60E9457
:1055B000DFF287FD4DC651E7E52E52E0F52E0FE5EF
:1055C0001DE0F70181917F010E944088882349F006
:1055D0000E945C5AD80194966D937D938D939C9311
:1055E00097970C5F1F4FBDE00F361B0751F730C672
:1055F0008091181487FF02C00C94643380911914B1
:105600008E7011F00C9464334091930D5091940D71
:105610006091950D7091960D86E599E00E94A78A9C
:105620004091970D5091980D6091990D70919A0D40
:1056300083E599E00E94A78A40919B0D50919C0DB3
:1056400060919D0D70919E0D80E599E00E94A78A62
:105650008AE00E94A5CAFCC580911714827111F0DE
:105660000C94AA33809119148C7811F00C94AA33FD
:1056700080911A14837011F00C94AA33E9C51F5F4E
:10568000B4E0EB0EF11C133011F40C942921F60157
:1056900081916F010E944088882389F30E945C5A9F
:1056A000D7016D937D938D939C931397812F0E94C7
:1056B000ACBEE5CF0E94DC8A8FEB99E00E94D089D6
:1056C00083E50E944088882321F00E94485A8093F5
:1056D000620280916202882319F08CE999E002C08D
:1056E00088E999E00E94D08987EB99E00E94D089EF
:1056F0002091060E3091070E4091080E5091090E30
:1057000060914A0270914B0280914C0290914D023F
:105710000F94C915AB01BC0185EB99E00E94A78AE3
:1057200020910A0E30910B0E40910C0E50910D0EEF
:1057300060915202709153028091540290915502EF
:105740000F94C915AB01BC0182EB99E00E94A78AB6
:1057500020910E0E30910F0E4091100E5091110EAF
:1057600060915A0270915B0280915C0290915D029F
:105770000F94C915AB01BC018FEA99E00E94A78A7A
:1057800087EA99E00E94D0892091060E3091070E99
:105790004091080E5091090E60914E0270914F0297
:1057A00080915002909151020F94C915AB01BC0138
:1057B00085EA99E00E94A78A20910A0E30910B0E8B
:1057C00040910C0E50910D0E60915602709157024F
:1057D00080915802909159020F94C915AB01BC01F8
:1057E00082EA99E00E94A78A20910E0E30910F0E56
:1057F0004091100E5091110E60915E0270915F0207
:1058000080916002909161020F94C915AB01BC01B7
:105810008FE999E00E94A78A8AE00E94A5CA18C56C
:1058200083E50E94935A882309F412C50E94585AAE
:1058300090936802809367020BC50E94DFF2F82EF6
:1058400087FD06C583E50E94935A0F2D0F2C000C8F
:10585000110B882369F10E94585AF801EE0FFF1FBF
:10586000E75CFD4F91838083000F111F000F111F14
:10587000F801E15DFD4F7F01BC01990F880B990B89
:105880000F94CC0E2AE037ED43E25CE30F942B0F2C
:10589000F801ED56F14F20813181428153810F94FF
:1058A0002B0FD7016D937D938D939C931397D0C449
:1058B0000E94DC8A85E40E94A5CA80E38F0D0E94C5
:1058C000A5CAF801EE0FFF1FE75CFD4F60817181F3
:1058D0008FEC99E00E94B88A85E20E94A5CA8AE00E
:1058E0000E94A5CAB5C480E50E944088882309F4B7
:1058F000AFC460E070E080E50E94A05AF82E6FEF20
:105900007FEF83E50E94A05A8C010196039708F06F
:105910009FC4F7FC9DC48F2D0F94C705882339F0D1
:105920000E94D88A87ED99E00E94D08991C40E9494
:10593000B6BA60E08F2D0E94F0FA0F3FBFEF1B0751
:1059400031F00130110571F000E010E00DC08F2D35
:105950000E945ED631E020E0892B09F030E0032F71
:10596000122F02C001E010E08F2D0E945ED680173A
:10597000910709F46DC480E00E94ACCAF5CF8AE5B6
:105980000E94935A81115DC783E50E94935A811149
:1059900058C75EC464E071E083E50E94F0F48C01B6
:1059A00068EE73E080E50E94F0F48938E3E19E0739
:1059B00010F088E893E1B8010E942EB549C485E44F
:1059C0000E94F7CF811173C080E50E944088882330
:1059D00051F00E945C5A60939008709391088093F4
:1059E00092089093930889E40E944088882381F06C
:1059F0000E945C5A2CEA35EC47E25EE30F942B0FD1
:105A000060939408709395088093960890939708F4
:105A100084E40E944088882381F00E945C5A2CEA2A
:105A200035EC47E25EE30F9451166093980870934B
:105A3000990880939A0890939B080E94DC8A409171
:105A4000900850919108609192087091930880E0BD
:105A50009AE00E94A78A2CEA35EC47E25EE3609167
:105A600094087091950880919608909197080F94EA
:105A70005116AB01BC018CEF99E00E94A78A2CEA79
:105A800035EC47E25EE36091980870919908809147
:105A90009A0890919B080F942B0FAB01BC0188EFE3
:105AA00099E00E94A78A8AE00E94A5CAD1C30E94F9
:105AB000D88A86EE99E00E94D089CAC383E50E9405
:105AC0004088182F882371F00E945C5A0F94C316E7
:105AD000709334026093330221E0672B09F020E0D9
